{
  "_format": "hh-sol-artifact-1",
  "contractName": "EURT",
  "sourceName": "contracts/EURT.sol",
  "abi": [
    {
      "inputs": [],
      "stateMutability": "nonpayable",
      "type": "constructor"
    },
    {
      "inputs": [],
      "name": "AccessControlBadConfirmation",
      "type": "error"
    },
    {
      "inputs": [
        {
          "internalType": "address",
          "name": "account",
          "type": "address"
        },
        {
          "internalType": "bytes32",
          "name": "neededRole",
          "type": "bytes32"
        }
      ],
      "name": "AccessControlUnauthorizedAccount",
      "type": "error"
    },
    {
      "inputs": [
        {
          "internalType": "address",
          "name": "spender",
          "type": "address"
        },
        {
          "internalType": "uint256",
          "name": "allowance",
          "type": "uint256"
        },
        {
          "internalType": "uint256",
          "name": "needed",
          "type": "uint256"
        }
      ],
      "name": "ERC20InsufficientAllowance",
      "type": "error"
    },
    {
      "inputs": [
        {
          "internalType": "address",
          "name": "sender",
          "type": "address"
        },
        {
          "internalType": "uint256",
          "name": "balance",
          "type": "uint256"
        },
        {
          "internalType": "uint256",
          "name": "needed",
          "type": "uint256"
        }
      ],
      "name": "ERC20InsufficientBalance",
      "type": "error"
    },
    {
      "inputs": [
        {
          "internalType": "address",
          "name": "approver",
          "type": "address"
        }
      ],
      "name": "ERC20InvalidApprover",
      "type": "error"
    },
    {
      "inputs": [
        {
          "internalType": "address",
          "name": "receiver",
          "type": "address"
        }
      ],
      "name": "ERC20InvalidReceiver",
      "type": "error"
    },
    {
      "inputs": [
        {
          "internalType": "address",
          "name": "sender",
          "type": "address"
        }
      ],
      "name": "ERC20InvalidSender",
      "type": "error"
    },
    {
      "inputs": [
        {
          "internalType": "address",
          "name": "spender",
          "type": "address"
        }
      ],
      "name": "ERC20InvalidSpender",
      "type": "error"
    },
    {
      "anonymous": false,
      "inputs": [
        {
          "indexed": true,
          "internalType": "address",
          "name": "owner",
          "type": "address"
        },
        {
          "indexed": true,
          "internalType": "address",
          "name": "spender",
          "type": "address"
        },
        {
          "indexed": false,
          "internalType": "uint256",
          "name": "value",
          "type": "uint256"
        }
      ],
      "name": "Approval",
      "type": "event"
    },
    {
      "anonymous": false,
      "inputs": [
        {
          "indexed": true,
          "internalType": "bytes32",
          "name": "role",
          "type": "bytes32"
        },
        {
          "indexed": true,
          "internalType": "bytes32",
          "name": "previousAdminRole",
          "type": "bytes32"
        },
        {
          "indexed": true,
          "internalType": "bytes32",
          "name": "newAdminRole",
          "type": "bytes32"
        }
      ],
      "name": "RoleAdminChanged",
      "type": "event"
    },
    {
      "anonymous": false,
      "inputs": [
        {
          "indexed": true,
          "internalType": "bytes32",
          "name": "role",
          "type": "bytes32"
        },
        {
          "indexed": true,
          "internalType": "address",
          "name": "account",
          "type": "address"
        },
        {
          "indexed": true,
          "internalType": "address",
          "name": "sender",
          "type": "address"
        }
      ],
      "name": "RoleGranted",
      "type": "event"
    },
    {
      "anonymous": false,
      "inputs": [
        {
          "indexed": true,
          "internalType": "bytes32",
          "name": "role",
          "type": "bytes32"
        },
        {
          "indexed": true,
          "internalType": "address",
          "name": "account",
          "type": "address"
        },
        {
          "indexed": true,
          "internalType": "address",
          "name": "sender",
          "type": "address"
        }
      ],
      "name": "RoleRevoked",
      "type": "event"
    },
    {
      "anonymous": false,
      "inputs": [
        {
          "indexed": true,
          "internalType": "address",
          "name": "from",
          "type": "address"
        },
        {
          "indexed": true,
          "internalType": "address",
          "name": "to",
          "type": "address"
        },
        {
          "indexed": false,
          "internalType": "uint256",
          "name": "value",
          "type": "uint256"
        }
      ],
      "name": "Transfer",
      "type": "event"
    },
    {
      "inputs": [],
      "name": "BLACKLISTER_ROLE",
      "outputs": [
        {
          "internalType": "bytes32",
          "name": "",
          "type": "bytes32"
        }
      ],
      "stateMutability": "view",
      "type": "function"
    },
    {
      "inputs": [],
      "name": "BURNER_ROLE",
      "outputs": [
        {
          "internalType": "bytes32",
          "name": "",
          "type": "bytes32"
        }
      ],
      "stateMutability": "view",
      "type": "function"
    },
    {
      "inputs": [],
      "name": "DEFAULT_ADMIN_ROLE",
      "outputs": [
        {
          "internalType": "bytes32",
          "name": "",
          "type": "bytes32"
        }
      ],
      "stateMutability": "view",
      "type": "function"
    },
    {
      "inputs": [],
      "name": "MINTER_ROLE",
      "outputs": [
        {
          "internalType": "bytes32",
          "name": "",
          "type": "bytes32"
        }
      ],
      "stateMutability": "view",
      "type": "function"
    },
    {
      "inputs": [
        {
          "internalType": "address",
          "name": "account",
          "type": "address"
        }
      ],
      "name": "addToBlacklist",
      "outputs": [],
      "stateMutability": "nonpayable",
      "type": "function"
    },
    {
      "inputs": [
        {
          "internalType": "address",
          "name": "owner",
          "type": "address"
        },
        {
          "internalType": "address",
          "name": "spender",
          "type": "address"
        }
      ],
      "name": "allowance",
      "outputs": [
        {
          "internalType": "uint256",
          "name": "",
          "type": "uint256"
        }
      ],
      "stateMutability": "view",
      "type": "function"
    },
    {
      "inputs": [
        {
          "internalType": "address",
          "name": "spender",
          "type": "address"
        },
        {
          "internalType": "uint256",
          "name": "value",
          "type": "uint256"
        }
      ],
      "name": "approve",
      "outputs": [
        {
          "internalType": "bool",
          "name": "",
          "type": "bool"
        }
      ],
      "stateMutability": "nonpayable",
      "type": "function"
    },
    {
      "inputs": [
        {
          "internalType": "address",
          "name": "account",
          "type": "address"
        }
      ],
      "name": "balanceOf",
      "outputs": [
        {
          "internalType": "uint256",
          "name": "",
          "type": "uint256"
        }
      ],
      "stateMutability": "view",
      "type": "function"
    },
    {
      "inputs": [
        {
          "internalType": "uint256",
          "name": "amount",
          "type": "uint256"
        }
      ],
      "name": "burn",
      "outputs": [],
      "stateMutability": "nonpayable",
      "type": "function"
    },
    {
      "inputs": [],
      "name": "decimals",
      "outputs": [
        {
          "internalType": "uint8",
          "name": "",
          "type": "uint8"
        }
      ],
      "stateMutability": "pure",
      "type": "function"
    },
    {
      "inputs": [
        {
          "internalType": "bytes32",
          "name": "role",
          "type": "bytes32"
        }
      ],
      "name": "getRoleAdmin",
      "outputs": [
        {
          "internalType": "bytes32",
          "name": "",
          "type": "bytes32"
        }
      ],
      "stateMutability": "view",
      "type": "function"
    },
    {
      "inputs": [
        {
          "internalType": "bytes32",
          "name": "role",
          "type": "bytes32"
        },
        {
          "internalType": "address",
          "name": "account",
          "type": "address"
        }
      ],
      "name": "grantRole",
      "outputs": [],
      "stateMutability": "nonpayable",
      "type": "function"
    },
    {
      "inputs": [
        {
          "internalType": "bytes32",
          "name": "role",
          "type": "bytes32"
        },
        {
          "internalType": "address",
          "name": "account",
          "type": "address"
        }
      ],
      "name": "hasRole",
      "outputs": [
        {
          "internalType": "bool",
          "name": "",
          "type": "bool"
        }
      ],
      "stateMutability": "view",
      "type": "function"
    },
    {
      "inputs": [
        {
          "internalType": "address",
          "name": "account",
          "type": "address"
        }
      ],
      "name": "isBlacklisted",
      "outputs": [
        {
          "internalType": "bool",
          "name": "",
          "type": "bool"
        }
      ],
      "stateMutability": "view",
      "type": "function"
    },
    {
      "inputs": [
        {
          "internalType": "address",
          "name": "to",
          "type": "address"
        },
        {
          "internalType": "uint256",
          "name": "amount",
          "type": "uint256"
        }
      ],
      "name": "mint",
      "outputs": [],
      "stateMutability": "nonpayable",
      "type": "function"
    },
    {
      "inputs": [],
      "name": "name",
      "outputs": [
        {
          "internalType": "string",
          "name": "",
          "type": "string"
        }
      ],
      "stateMutability": "view",
      "type": "function"
    },
    {
      "inputs": [
        {
          "internalType": "address",
          "name": "account",
          "type": "address"
        }
      ],
      "name": "removeFromBlacklist",
      "outputs": [],
      "stateMutability": "nonpayable",
      "type": "function"
    },
    {
      "inputs": [
        {
          "internalType": "bytes32",
          "name": "role",
          "type": "bytes32"
        },
        {
          "internalType": "address",
          "name": "callerConfirmation",
          "type": "address"
        }
      ],
      "name": "renounceRole",
      "outputs": [],
      "stateMutability": "nonpayable",
      "type": "function"
    },
    {
      "inputs": [
        {
          "internalType": "bytes32",
          "name": "role",
          "type": "bytes32"
        },
        {
          "internalType": "address",
          "name": "account",
          "type": "address"
        }
      ],
      "name": "revokeRole",
      "outputs": [],
      "stateMutability": "nonpayable",
      "type": "function"
    },
    {
      "inputs": [
        {
          "internalType": "bytes4",
          "name": "interfaceId",
          "type": "bytes4"
        }
      ],
      "name": "supportsInterface",
      "outputs": [
        {
          "internalType": "bool",
          "name": "",
          "type": "bool"
        }
      ],
      "stateMutability": "view",
      "type": "function"
    },
    {
      "inputs": [],
      "name": "symbol",
      "outputs": [
        {
          "internalType": "string",
          "name": "",
          "type": "string"
        }
      ],
      "stateMutability": "view",
      "type": "function"
    },
    {
      "inputs": [],
      "name": "totalSupply",
      "outputs": [
        {
          "internalType": "uint256",
          "name": "",
          "type": "uint256"
        }
      ],
      "stateMutability": "view",
      "type": "function"
    },
    {
      "inputs": [
        {
          "internalType": "address",
          "name": "to",
          "type": "address"
        },
        {
          "internalType": "uint256",
          "name": "value",
          "type": "uint256"
        }
      ],
      "name": "transfer",
      "outputs": [
        {
          "internalType": "bool",
          "name": "",
          "type": "bool"
        }
      ],
      "stateMutability": "nonpayable",
      "type": "function"
    },
    {
      "inputs": [
        {
          "internalType": "address",
          "name": "from",
          "type": "address"
        },
        {
          "internalType": "address",
          "name": "to",
          "type": "address"
        },
        {
          "internalType": "uint256",
          "name": "value",
          "type": "uint256"
        }
      ],
      "name": "transferFrom",
      "outputs": [
        {
          "internalType": "bool",
          "name": "",
          "type": "bool"
        }
      ],
      "stateMutability": "nonpayable",
      "type": "function"
    }
  ],
  "bytecode": "0x60806040523480156200001157600080fd5b506040518060400160405280600a81526020017f4575726f20546f6b656e000000000000000000000000000000000000000000008152506040518060400160405280600481526020017f455552540000000000000000000000000000000000000000000000000000000081525081600390816200008f919062000956565b508060049081620000a1919062000956565b505050620000b96000801b336200017060201b60201c565b50620000ec7f9f2df0fed2c77648de5860a4cc508cd0818c85b8b8a1ab4ceeef8d981c8956a6336200017060201b60201c565b506200011f7f3c11d16cbaffd01df69ce1c404f6340ee057498f5f00246190ea54220576a848336200017060201b60201c565b50620001527f98db8a220cd0f09badce9f22d0ba7e93edb3d404448cc3560d391ab096ad16e9336200017060201b60201c565b506200016a3364e8d4a510006200027460201b60201c565b62000c69565b60006200018483836200030160201b60201c565b620002695760016005600085815260200190815260200160002060000160008473ffffffffffffffffffffffffffffffffffffffff1673ffffffffffffffffffffffffffffffffffffffff16815260200190815260200160002060006101000a81548160ff021916908315150217905550620002056200036c60201b60201c565b73ffffffffffffffffffffffffffffffffffffffff168273ffffffffffffffffffffffffffffffffffffffff16847f2f8788117e7eff1d82e926ec794901d17c78024a50270940304540a733656f0d60405160405180910390a4600190506200026e565b600090505b92915050565b600073ffffffffffffffffffffffffffffffffffffffff168273ffffffffffffffffffffffffffffffffffffffff1603620002e95760006040517fec442f05000000000000000000000000000000000000000000000000000000008152600401620002e0919062000a82565b60405180910390fd5b620002fd600083836200037460201b60201c565b5050565b60006005600084815260200190815260200160002060000160008373ffffffffffffffffffffffffffffffffffffffff1673ffffffffffffffffffffffffffffffffffffffff16815260200190815260200160002060009054906101000a900460ff16905092915050565b600033905090565b600660008473ffffffffffffffffffffffffffffffffffffffff1673ffffffffffffffffffffffffffffffffffffffff16815260200190815260200160002060009054906101000a900460ff161562000404576040517f08c379a0000000000000000000000000000000000000000000000000000000008152600401620003fb9062000b00565b60405180910390fd5b600660008373ffffffffffffffffffffffffffffffffffffffff1673ffffffffffffffffffffffffffffffffffffffff16815260200190815260200160002060009054906101000a900460ff161562000494576040517f08c379a00000000000000000000000000000000000000000000000000000000081526004016200048b9062000b72565b60405180910390fd5b620004a7838383620004ac60201b60201c565b505050565b600073ffffffffffffffffffffffffffffffffffffffff168373ffffffffffffffffffffffffffffffffffffffff160362000502578060026000828254620004f5919062000bc3565b92505081905550620005d8565b60008060008573ffffffffffffffffffffffffffffffffffffffff1673ffffffffffffffffffffffffffffffffffffffff1681526020019081526020016000205490508181101562000591578381836040517fe450d38c000000000000000000000000000000000000000000000000000000008152600401620005889392919062000c0f565b60405180910390fd5b8181036000808673ffffffffffffffffffffffffffffffffffffffff1673ffffffffffffffffffffffffffffffffffffffff16815260200190815260200160002081905550505b600073ffffffffffffffffffffffffffffffffffffffff168273ffffffffffffffffffffffffffffffffffffffff160362000623578060026000828254039250508190555062000670565b806000808473ffffffffffffffffffffffffffffffffffffffff1673ffffffffffffffffffffffffffffffffffffffff168152602001908152602001600020600082825401925050819055505b8173ffffffffffffffffffffffffffffffffffffffff168373ffffffffffffffffffffffffffffffffffffffff167fddf252ad1be2c89b69c2b068fc378daa952ba7f163c4a11628f55a4df523b3ef83604051620006cf919062000c4c565b60405180910390a3505050565b600081519050919050565b7f4e487b7100000000000000000000000000000000000000000000000000000000600052604160045260246000fd5b7f4e487b7100000000000000000000000000000000000000000000000000000000600052602260045260246000fd5b600060028204905060018216806200075e57607f821691505b60208210810362000774576200077362000716565b5b50919050565b60008190508160005260206000209050919050565b60006020601f8301049050919050565b600082821b905092915050565b600060088302620007de7fffffffffffffffffffffffffffffffffffffffffffffffffffffffffffffffff826200079f565b620007ea86836200079f565b95508019841693508086168417925050509392505050565b6000819050919050565b6000819050919050565b600062000837620008316200082b8462000802565b6200080c565b62000802565b9050919050565b6000819050919050565b620008538362000816565b6200086b62000862826200083e565b848454620007ac565b825550505050565b600090565b6200088262000873565b6200088f81848462000848565b505050565b5b81811015620008b757620008ab60008262000878565b60018101905062000895565b5050565b601f8211156200090657620008d0816200077a565b620008db846200078f565b81016020851015620008eb578190505b62000903620008fa856200078f565b83018262000894565b50505b505050565b600082821c905092915050565b60006200092b600019846008026200090b565b1980831691505092915050565b600062000946838362000918565b9150826002028217905092915050565b6200096182620006dc565b67ffffffffffffffff8111156200097d576200097c620006e7565b5b62000989825462000745565b62000996828285620008bb565b600060209050601f831160018114620009ce5760008415620009b9578287015190505b620009c5858262000938565b86555062000a35565b601f198416620009de866200077a565b60005b8281101562000a0857848901518255600182019150602085019450602081019050620009e1565b8683101562000a28578489015162000a24601f89168262000918565b8355505b6001600288020188555050505b505050505050565b600073ffffffffffffffffffffffffffffffffffffffff82169050919050565b600062000a6a8262000a3d565b9050919050565b62000a7c8162000a5d565b82525050565b600060208201905062000a99600083018462000a71565b92915050565b600082825260208201905092915050565b7f455552543a2073656e64657220697320626c61636b6c69737465640000000000600082015250565b600062000ae8601b8362000a9f565b915062000af58262000ab0565b602082019050919050565b6000602082019050818103600083015262000b1b8162000ad9565b9050919050565b7f455552543a20726563697069656e7420697320626c61636b6c69737465640000600082015250565b600062000b5a601e8362000a9f565b915062000b678262000b22565b602082019050919050565b6000602082019050818103600083015262000b8d8162000b4b565b9050919050565b7f4e487b7100000000000000000000000000000000000000000000000000000000600052601160045260246000fd5b600062000bd08262000802565b915062000bdd8362000802565b925082820190508082111562000bf85762000bf762000b94565b5b92915050565b62000c098162000802565b82525050565b600060608201905062000c26600083018662000a71565b62000c35602083018562000bfe565b62000c44604083018462000bfe565b949350505050565b600060208201905062000c63600083018462000bfe565b92915050565b611c838062000c796000396000f3fe608060405234801561001057600080fd5b50600436106101585760003560e01c806344337ea1116100c3578063a9059cbb1161007c578063a9059cbb146103d9578063d539139314610409578063d547741f14610427578063dd62ed3e14610443578063f515e6f214610473578063fe575a871461049157610158565b806344337ea114610305578063537df3b61461032157806370a082311461033d57806391d148541461036d57806395d89b411461039d578063a217fddf146103bb57610158565b8063282c51f311610115578063282c51f3146102595780632f2ff15d14610277578063313ce5671461029357806336568abe146102b157806340c10f19146102cd57806342966c68146102e957610158565b806301ffc9a71461015d57806306fdde031461018d578063095ea7b3146101ab57806318160ddd146101db57806323b872dd146101f9578063248a9ca314610229575b600080fd5b61017760048036038101906101729190611624565b6104c1565b604051610184919061166c565b60405180910390f35b61019561053b565b6040516101a29190611717565b60405180910390f35b6101c560048036038101906101c091906117cd565b6105cd565b6040516101d2919061166c565b60405180910390f35b6101e36105f0565b6040516101f0919061181c565b60405180910390f35b610213600480360381019061020e9190611837565b6105fa565b604051610220919061166c565b60405180910390f35b610243600480360381019061023e91906118c0565b610629565b60405161025091906118fc565b60405180910390f35b610261610649565b60405161026e91906118fc565b60405180910390f35b610291600480360381019061028c9190611917565b61066d565b005b61029b61068f565b6040516102a89190611973565b60405180910390f35b6102cb60048036038101906102c69190611917565b610698565b005b6102e760048036038101906102e291906117cd565b610713565b005b61030360048036038101906102fe919061198e565b61074c565b005b61031f600480360381019061031a91906119bb565b610784565b005b61033b600480360381019061033691906119bb565b61080a565b005b610357600480360381019061035291906119bb565b610890565b604051610364919061181c565b60405180910390f35b61038760048036038101906103829190611917565b6108d8565b604051610394919061166c565b60405180910390f35b6103a5610943565b6040516103b29190611717565b60405180910390f35b6103c36109d5565b6040516103d091906118fc565b60405180910390f35b6103f360048036038101906103ee91906117cd565b6109dc565b604051610400919061166c565b60405180910390f35b6104116109ff565b60405161041e91906118fc565b60405180910390f35b610441600480360381019061043c9190611917565b610a23565b005b61045d600480360381019061045891906119e8565b610a45565b60405161046a919061181c565b60405180910390f35b61047b610acc565b60405161048891906118fc565b60405180910390f35b6104ab60048036038101906104a691906119bb565b610af0565b6040516104b8919061166c565b60405180910390f35b60007f7965db0b000000000000000000000000000000000000000000000000000000007bffffffffffffffffffffffffffffffffffffffffffffffffffffffff1916827bffffffffffffffffffffffffffffffffffffffffffffffffffffffff19161480610534575061053382610b46565b5b9050919050565b60606003805461054a90611a57565b80601f016020809104026020016040519081016040528092919081815260200182805461057690611a57565b80156105c35780601f10610598576101008083540402835291602001916105c3565b820191906000526020600020905b8154815290600101906020018083116105a657829003601f168201915b5050505050905090565b6000806105d8610bb0565b90506105e5818585610bb8565b600191505092915050565b6000600254905090565b600080610605610bb0565b9050610612858285610bca565b61061d858585610c5f565b60019150509392505050565b600060056000838152602001908152602001600020600101549050919050565b7f3c11d16cbaffd01df69ce1c404f6340ee057498f5f00246190ea54220576a84881565b61067682610629565b61067f81610d53565b6106898383610d67565b50505050565b60006006905090565b6106a0610bb0565b73ffffffffffffffffffffffffffffffffffffffff168173ffffffffffffffffffffffffffffffffffffffff1614610704576040517f6697b23200000000000000000000000000000000000000000000000000000000815260040160405180910390fd5b61070e8282610e59565b505050565b7f9f2df0fed2c77648de5860a4cc508cd0818c85b8b8a1ab4ceeef8d981c8956a661073d81610d53565b6107478383610f4c565b505050565b7f3c11d16cbaffd01df69ce1c404f6340ee057498f5f00246190ea54220576a84861077681610d53565b6107803383610fce565b5050565b7f98db8a220cd0f09badce9f22d0ba7e93edb3d404448cc3560d391ab096ad16e96107ae81610d53565b6001600660008473ffffffffffffffffffffffffffffffffffffffff1673ffffffffffffffffffffffffffffffffffffffff16815260200190815260200160002060006101000a81548160ff0219169083151502179055505050565b7f98db8a220cd0f09badce9f22d0ba7e93edb3d404448cc3560d391ab096ad16e961083481610d53565b6000600660008473ffffffffffffffffffffffffffffffffffffffff1673ffffffffffffffffffffffffffffffffffffffff16815260200190815260200160002060006101000a81548160ff0219169083151502179055505050565b60008060008373ffffffffffffffffffffffffffffffffffffffff1673ffffffffffffffffffffffffffffffffffffffff168152602001908152602001600020549050919050565b60006005600084815260200190815260200160002060000160008373ffffffffffffffffffffffffffffffffffffffff1673ffffffffffffffffffffffffffffffffffffffff16815260200190815260200160002060009054906101000a900460ff16905092915050565b60606004805461095290611a57565b80601f016020809104026020016040519081016040528092919081815260200182805461097e90611a57565b80156109cb5780601f106109a0576101008083540402835291602001916109cb565b820191906000526020600020905b8154815290600101906020018083116109ae57829003601f168201915b5050505050905090565b6000801b81565b6000806109e7610bb0565b90506109f4818585610c5f565b600191505092915050565b7f9f2df0fed2c77648de5860a4cc508cd0818c85b8b8a1ab4ceeef8d981c8956a681565b610a2c82610629565b610a3581610d53565b610a3f8383610e59565b50505050565b6000600160008473ffffffffffffffffffffffffffffffffffffffff1673ffffffffffffffffffffffffffffffffffffffff16815260200190815260200160002060008373ffffffffffffffffffffffffffffffffffffffff1673ffffffffffffffffffffffffffffffffffffffff16815260200190815260200160002054905092915050565b7f98db8a220cd0f09badce9f22d0ba7e93edb3d404448cc3560d391ab096ad16e981565b6000600660008373ffffffffffffffffffffffffffffffffffffffff1673ffffffffffffffffffffffffffffffffffffffff16815260200190815260200160002060009054906101000a900460ff169050919050565b60007f01ffc9a7000000000000000000000000000000000000000000000000000000007bffffffffffffffffffffffffffffffffffffffffffffffffffffffff1916827bffffffffffffffffffffffffffffffffffffffffffffffffffffffff1916149050919050565b600033905090565b610bc58383836001611050565b505050565b6000610bd68484610a45565b90507fffffffffffffffffffffffffffffffffffffffffffffffffffffffffffffffff811015610c595781811015610c49578281836040517ffb8f41b2000000000000000000000000000000000000000000000000000000008152600401610c4093929190611a97565b60405180910390fd5b610c5884848484036000611050565b5b50505050565b600073ffffffffffffffffffffffffffffffffffffffff168373ffffffffffffffffffffffffffffffffffffffff1603610cd15760006040517f96c6fd1e000000000000000000000000000000000000000000000000000000008152600401610cc89190611ace565b60405180910390fd5b600073ffffffffffffffffffffffffffffffffffffffff168273ffffffffffffffffffffffffffffffffffffffff1603610d435760006040517fec442f05000000000000000000000000000000000000000000000000000000008152600401610d3a9190611ace565b60405180910390fd5b610d4e838383611227565b505050565b610d6481610d5f610bb0565b611351565b50565b6000610d7383836108d8565b610e4e5760016005600085815260200190815260200160002060000160008473ffffffffffffffffffffffffffffffffffffffff1673ffffffffffffffffffffffffffffffffffffffff16815260200190815260200160002060006101000a81548160ff021916908315150217905550610deb610bb0565b73ffffffffffffffffffffffffffffffffffffffff168273ffffffffffffffffffffffffffffffffffffffff16847f2f8788117e7eff1d82e926ec794901d17c78024a50270940304540a733656f0d60405160405180910390a460019050610e53565b600090505b92915050565b6000610e6583836108d8565b15610f415760006005600085815260200190815260200160002060000160008473ffffffffffffffffffffffffffffffffffffffff1673ffffffffffffffffffffffffffffffffffffffff16815260200190815260200160002060006101000a81548160ff021916908315150217905550610ede610bb0565b73ffffffffffffffffffffffffffffffffffffffff168273ffffffffffffffffffffffffffffffffffffffff16847ff6391f5c32d9c69d2a47ea670b442974b53935d1edc7fd64eb21e047a839171b60405160405180910390a460019050610f46565b600090505b92915050565b600073ffffffffffffffffffffffffffffffffffffffff168273ffffffffffffffffffffffffffffffffffffffff1603610fbe5760006040517fec442f05000000000000000000000000000000000000000000000000000000008152600401610fb59190611ace565b60405180910390fd5b610fca60008383611227565b5050565b600073ffffffffffffffffffffffffffffffffffffffff168273ffffffffffffffffffffffffffffffffffffffff16036110405760006040517f96c6fd1e0000000000000000000000000000000000000000000000000000000081526004016110379190611ace565b60405180910390fd5b61104c82600083611227565b5050565b600073ffffffffffffffffffffffffffffffffffffffff168473ffffffffffffffffffffffffffffffffffffffff16036110c25760006040517fe602df050000000000000000000000000000000000000000000000000000000081526004016110b99190611ace565b60405180910390fd5b600073ffffffffffffffffffffffffffffffffffffffff168373ffffffffffffffffffffffffffffffffffffffff16036111345760006040517f94280d6200000000000000000000000000000000000000000000000000000000815260040161112b9190611ace565b60405180910390fd5b81600160008673ffffffffffffffffffffffffffffffffffffffff1673ffffffffffffffffffffffffffffffffffffffff16815260200190815260200160002060008573ffffffffffffffffffffffffffffffffffffffff1673ffffffffffffffffffffffffffffffffffffffff168152602001908152602001600020819055508015611221578273ffffffffffffffffffffffffffffffffffffffff168473ffffffffffffffffffffffffffffffffffffffff167f8c5be1e5ebec7d5bd14f71427d1e84f3dd0314c0f7b2291e5b200ac8c7c3b92584604051611218919061181c565b60405180910390a35b50505050565b600660008473ffffffffffffffffffffffffffffffffffffffff1673ffffffffffffffffffffffffffffffffffffffff16815260200190815260200160002060009054906101000a900460ff16156112b4576040517f08c379a00000000000000000000000000000000000000000000000000000000081526004016112ab90611b35565b60405180910390fd5b600660008373ffffffffffffffffffffffffffffffffffffffff1673ffffffffffffffffffffffffffffffffffffffff16815260200190815260200160002060009054906101000a900460ff1615611341576040517f08c379a000000000000000000000000000000000000000000000000000000000815260040161133890611ba1565b60405180910390fd5b61134c8383836113a2565b505050565b61135b82826108d8565b61139e5780826040517fe2517d3f000000000000000000000000000000000000000000000000000000008152600401611395929190611bc1565b60405180910390fd5b5050565b600073ffffffffffffffffffffffffffffffffffffffff168373ffffffffffffffffffffffffffffffffffffffff16036113f45780600260008282546113e89190611c19565b925050819055506114c7565b60008060008573ffffffffffffffffffffffffffffffffffffffff1673ffffffffffffffffffffffffffffffffffffffff16815260200190815260200160002054905081811015611480578381836040517fe450d38c00000000000000000000000000000000000000000000000000000000815260040161147793929190611a97565b60405180910390fd5b8181036000808673ffffffffffffffffffffffffffffffffffffffff1673ffffffffffffffffffffffffffffffffffffffff16815260200190815260200160002081905550505b600073ffffffffffffffffffffffffffffffffffffffff168273ffffffffffffffffffffffffffffffffffffffff1603611510578060026000828254039250508190555061155d565b806000808473ffffffffffffffffffffffffffffffffffffffff1673ffffffffffffffffffffffffffffffffffffffff168152602001908152602001600020600082825401925050819055505b8173ffffffffffffffffffffffffffffffffffffffff168373ffffffffffffffffffffffffffffffffffffffff167fddf252ad1be2c89b69c2b068fc378daa952ba7f163c4a11628f55a4df523b3ef836040516115ba919061181c565b60405180910390a3505050565b600080fd5b60007fffffffff0000000000000000000000000000000000000000000000000000000082169050919050565b611601816115cc565b811461160c57600080fd5b50565b60008135905061161e816115f8565b92915050565b60006020828403121561163a576116396115c7565b5b60006116488482850161160f565b91505092915050565b60008115159050919050565b61166681611651565b82525050565b6000602082019050611681600083018461165d565b92915050565b600081519050919050565b600082825260208201905092915050565b60005b838110156116c15780820151818401526020810190506116a6565b60008484015250505050565b6000601f19601f8301169050919050565b60006116e982611687565b6116f38185611692565b93506117038185602086016116a3565b61170c816116cd565b840191505092915050565b6000602082019050818103600083015261173181846116de565b905092915050565b600073ffffffffffffffffffffffffffffffffffffffff82169050919050565b600061176482611739565b9050919050565b61177481611759565b811461177f57600080fd5b50565b6000813590506117918161176b565b92915050565b6000819050919050565b6117aa81611797565b81146117b557600080fd5b50565b6000813590506117c7816117a1565b92915050565b600080604083850312156117e4576117e36115c7565b5b60006117f285828601611782565b9250506020611803858286016117b8565b9150509250929050565b61181681611797565b82525050565b6000602082019050611831600083018461180d565b92915050565b6000806000606084860312156118505761184f6115c7565b5b600061185e86828701611782565b935050602061186f86828701611782565b9250506040611880868287016117b8565b9150509250925092565b6000819050919050565b61189d8161188a565b81146118a857600080fd5b50565b6000813590506118ba81611894565b92915050565b6000602082840312156118d6576118d56115c7565b5b60006118e4848285016118ab565b91505092915050565b6118f68161188a565b82525050565b600060208201905061191160008301846118ed565b92915050565b6000806040838503121561192e5761192d6115c7565b5b600061193c858286016118ab565b925050602061194d85828601611782565b9150509250929050565b600060ff82169050919050565b61196d81611957565b82525050565b60006020820190506119886000830184611964565b92915050565b6000602082840312156119a4576119a36115c7565b5b60006119b2848285016117b8565b91505092915050565b6000602082840312156119d1576119d06115c7565b5b60006119df84828501611782565b91505092915050565b600080604083850312156119ff576119fe6115c7565b5b6000611a0d85828601611782565b9250506020611a1e85828601611782565b9150509250929050565b7f4e487b7100000000000000000000000000000000000000000000000000000000600052602260045260246000fd5b60006002820490506001821680611a6f57607f821691505b602082108103611a8257611a81611a28565b5b50919050565b611a9181611759565b82525050565b6000606082019050611aac6000830186611a88565b611ab9602083018561180d565b611ac6604083018461180d565b949350505050565b6000602082019050611ae36000830184611a88565b92915050565b7f455552543a2073656e64657220697320626c61636b6c69737465640000000000600082015250565b6000611b1f601b83611692565b9150611b2a82611ae9565b602082019050919050565b60006020820190508181036000830152611b4e81611b12565b9050919050565b7f455552543a20726563697069656e7420697320626c61636b6c69737465640000600082015250565b6000611b8b601e83611692565b9150611b9682611b55565b602082019050919050565b60006020820190508181036000830152611bba81611b7e565b9050919050565b6000604082019050611bd66000830185611a88565b611be360208301846118ed565b9392505050565b7f4e487b7100000000000000000000000000000000000000000000000000000000600052601160045260246000fd5b6000611c2482611797565b9150611c2f83611797565b9250828201905080821115611c4757611c46611bea565b5b9291505056fea26469706673582212207331b0e21fb90e123d12b9e23448c04b52af46ab672e1331b18c89457750bb0c64736f6c63430008140033",
  "linkReferences": {},
  "deployedLinkReferences": {}
}