{
  "contracts/Swap.sol": {
    "Swap": {
      "abi": [
        {
          "inputs": [
            {
              "internalType": "address",
              "name": "_eurt",
              "type": "address"
            },
            {
              "internalType": "address",
              "name": "_task",
              "type": "address"
            },
            {
              "internalType": "uint256",
              "name": "_conversionRate",
              "type": "uint256"
            }
          ],
          "stateMutability": "nonpayable",
          "type": "constructor"
        },
        {
          "inputs": [
            {
              "internalType": "address",
              "name": "owner",
              "type": "address"
            }
          ],
          "name": "OwnableInvalidOwner",
          "type": "error"
        },
        {
          "inputs": [
            {
              "internalType": "address",
              "name": "account",
              "type": "address"
            }
          ],
          "name": "OwnableUnauthorizedAccount",
          "type": "error"
        },
        {
          "anonymous": false,
          "inputs": [
            {
              "indexed": true,
              "internalType": "address",
              "name": "previousOwner",
              "type": "address"
            },
            {
              "indexed": true,
              "internalType": "address",
              "name": "newOwner",
              "type": "address"
            }
          ],
          "name": "OwnershipTransferred",
          "type": "event"
        },
        {
          "anonymous": false,
          "inputs": [
            {
              "indexed": true,
              "internalType": "address",
              "name": "user",
              "type": "address"
            },
            {
              "indexed": false,
              "internalType": "uint256",
              "name": "eurtAmount",
              "type": "uint256"
            },
            {
              "indexed": false,
              "internalType": "uint256",
              "name": "taskAmount",
              "type": "uint256"
            }
          ],
          "name": "SwapExecuted",
          "type": "event"
        },
        {
          "inputs": [],
          "name": "conversionRate",
          "outputs": [
            {
              "internalType": "uint256",
              "name": "",
              "type": "uint256"
            }
          ],
          "stateMutability": "view",
          "type": "function"
        },
        {
          "inputs": [],
          "name": "eurt",
          "outputs": [
            {
              "internalType": "contract EURT",
              "name": "",
              "type": "address"
            }
          ],
          "stateMutability": "view",
          "type": "function"
        },
        {
          "inputs": [],
          "name": "owner",
          "outputs": [
            {
              "internalType": "address",
              "name": "",
              "type": "address"
            }
          ],
          "stateMutability": "view",
          "type": "function"
        },
        {
          "inputs": [],
          "name": "renounceOwnership",
          "outputs": [],
          "stateMutability": "nonpayable",
          "type": "function"
        },
        {
          "inputs": [
            {
              "internalType": "uint256",
              "name": "_newRate",
              "type": "uint256"
            }
          ],
          "name": "setConversionRate",
          "outputs": [],
          "stateMutability": "nonpayable",
          "type": "function"
        },
        {
          "inputs": [
            {
              "internalType": "uint256",
              "name": "_eurtAmount",
              "type": "uint256"
            }
          ],
          "name": "swapEURTtoTASK",
          "outputs": [],
          "stateMutability": "nonpayable",
          "type": "function"
        },
        {
          "inputs": [],
          "name": "task",
          "outputs": [
            {
              "internalType": "contract TASK",
              "name": "",
              "type": "address"
            }
          ],
          "stateMutability": "view",
          "type": "function"
        },
        {
          "inputs": [
            {
              "internalType": "address",
              "name": "newOwner",
              "type": "address"
            }
          ],
          "name": "transferOwnership",
          "outputs": [],
          "stateMutability": "nonpayable",
          "type": "function"
        }
      ],
      "evm": {
        "bytecode": {
          "linkReferences": {},
          "object": "60806040523480156200001157600080fd5b50604051620010fd380380620010fd8339818101604052810190620000379190620002ba565b33600073ffffffffffffffffffffffffffffffffffffffff168173ffffffffffffffffffffffffffffffffffffffff1603620000ad5760006040517f1e4fbdf7000000000000000000000000000000000000000000000000000000008152600401620000a4919062000327565b60405180910390fd5b620000be816200015160201b60201c565b5082600160006101000a81548173ffffffffffffffffffffffffffffffffffffffff021916908373ffffffffffffffffffffffffffffffffffffffff16021790555081600260006101000a81548173ffffffffffffffffffffffffffffffffffffffff021916908373ffffffffffffffffffffffffffffffffffffffff1602179055508060038190555050505062000344565b60008060009054906101000a900473ffffffffffffffffffffffffffffffffffffffff169050816000806101000a81548173ffffffffffffffffffffffffffffffffffffffff021916908373ffffffffffffffffffffffffffffffffffffffff1602179055508173ffffffffffffffffffffffffffffffffffffffff168173ffffffffffffffffffffffffffffffffffffffff167f8be0079c531659141344cd1fd0a4f28419497f9722a3daafe3b4186f6b6457e060405160405180910390a35050565b600080fd5b600073ffffffffffffffffffffffffffffffffffffffff82169050919050565b600062000247826200021a565b9050919050565b62000259816200023a565b81146200026557600080fd5b50565b60008151905062000279816200024e565b92915050565b6000819050919050565b62000294816200027f565b8114620002a057600080fd5b50565b600081519050620002b48162000289565b92915050565b600080600060608486031215620002d657620002d562000215565b5b6000620002e68682870162000268565b9350506020620002f98682870162000268565b92505060406200030c86828701620002a3565b9150509250925092565b62000321816200023a565b82525050565b60006020820190506200033e600083018462000316565b92915050565b610da980620003546000396000f3fe608060405234801561001057600080fd5b50600436106100885760003560e01c80638da5cb5b1161005b5780638da5cb5b146100ef57806399b4e9611461010d578063d2e804941461012b578063f2fde38b1461014757610088565b80633283f6411461008d57806355383e05146100ab578063715018a6146100c75780637ffdf53e146100d1575b600080fd5b610095610163565b6040516100a29190610763565b60405180910390f35b6100c560048036038101906100c091906107b9565b610189565b005b6100cf61044d565b005b6100d9610461565b6040516100e691906107f5565b60405180910390f35b6100f7610467565b6040516101049190610831565b60405180910390f35b610115610490565b604051610122919061086d565b60405180910390f35b610145600480360381019061014091906107b9565b6104b6565b005b610161600480360381019061015c91906108b4565b61050b565b005b600260009054906101000a900473ffffffffffffffffffffffffffffffffffffffff1681565b600081116101cc576040517f08c379a00000000000000000000000000000000000000000000000000000000081526004016101c39061093e565b60405180910390fd5b6000600160009054906101000a900473ffffffffffffffffffffffffffffffffffffffff1673ffffffffffffffffffffffffffffffffffffffff166323b872dd3330856040518463ffffffff1660e01b815260040161022d9392919061095e565b6020604051808303816000875af115801561024c573d6000803e3d6000fd5b505050506040513d601f19601f8201168201806040525081019061027091906109cd565b9050806102b2576040517f08c379a00000000000000000000000000000000000000000000000000000000081526004016102a990610a46565b60405180910390fd5b600160009054906101000a900473ffffffffffffffffffffffffffffffffffffffff1673ffffffffffffffffffffffffffffffffffffffff166342966c68836040518263ffffffff1660e01b815260040161030d91906107f5565b600060405180830381600087803b15801561032757600080fd5b505af115801561033b573d6000803e3d6000fd5b505050506000600354600c600a6103529190610bc8565b8461035d9190610c13565b6103679190610c84565b9050600260009054906101000a900473ffffffffffffffffffffffffffffffffffffffff1673ffffffffffffffffffffffffffffffffffffffff166340c10f1933836040518363ffffffff1660e01b81526004016103c6929190610cb5565b600060405180830381600087803b1580156103e057600080fd5b505af11580156103f4573d6000803e3d6000fd5b505050503373ffffffffffffffffffffffffffffffffffffffff167f2d043ce009ff53fd444b0f4f5ff4c3f4ee293265203f77f156eeb33b595dfc4f8483604051610440929190610cde565b60405180910390a2505050565b610455610591565b61045f6000610618565b565b60035481565b60008060009054906101000a900473ffffffffffffffffffffffffffffffffffffffff16905090565b600160009054906101000a900473ffffffffffffffffffffffffffffffffffffffff1681565b6104be610591565b60008111610501576040517f08c379a00000000000000000000000000000000000000000000000000000000081526004016104f890610d53565b60405180910390fd5b8060038190555050565b610513610591565b600073ffffffffffffffffffffffffffffffffffffffff168173ffffffffffffffffffffffffffffffffffffffff16036105855760006040517f1e4fbdf700000000000000000000000000000000000000000000000000000000815260040161057c9190610831565b60405180910390fd5b61058e81610618565b50565b6105996106dc565b73ffffffffffffffffffffffffffffffffffffffff166105b7610467565b73ffffffffffffffffffffffffffffffffffffffff1614610616576105da6106dc565b6040517f118cdaa700000000000000000000000000000000000000000000000000000000815260040161060d9190610831565b60405180910390fd5b565b60008060009054906101000a900473ffffffffffffffffffffffffffffffffffffffff169050816000806101000a81548173ffffffffffffffffffffffffffffffffffffffff021916908373ffffffffffffffffffffffffffffffffffffffff1602179055508173ffffffffffffffffffffffffffffffffffffffff168173ffffffffffffffffffffffffffffffffffffffff167f8be0079c531659141344cd1fd0a4f28419497f9722a3daafe3b4186f6b6457e060405160405180910390a35050565b600033905090565b600073ffffffffffffffffffffffffffffffffffffffff82169050919050565b6000819050919050565b600061072961072461071f846106e4565b610704565b6106e4565b9050919050565b600061073b8261070e565b9050919050565b600061074d82610730565b9050919050565b61075d81610742565b82525050565b60006020820190506107786000830184610754565b92915050565b600080fd5b6000819050919050565b61079681610783565b81146107a157600080fd5b50565b6000813590506107b38161078d565b92915050565b6000602082840312156107cf576107ce61077e565b5b60006107dd848285016107a4565b91505092915050565b6107ef81610783565b82525050565b600060208201905061080a60008301846107e6565b92915050565b600061081b826106e4565b9050919050565b61082b81610810565b82525050565b60006020820190506108466000830184610822565b92915050565b600061085782610730565b9050919050565b6108678161084c565b82525050565b6000602082019050610882600083018461085e565b92915050565b61089181610810565b811461089c57600080fd5b50565b6000813590506108ae81610888565b92915050565b6000602082840312156108ca576108c961077e565b5b60006108d88482850161089f565b91505092915050565b600082825260208201905092915050565b7f416d6f756e74206d7573742062652067726561746572207468616e2030000000600082015250565b6000610928601d836108e1565b9150610933826108f2565b602082019050919050565b600060208201905081810360008301526109578161091b565b9050919050565b60006060820190506109736000830186610822565b6109806020830185610822565b61098d60408301846107e6565b949350505050565b60008115159050919050565b6109aa81610995565b81146109b557600080fd5b50565b6000815190506109c7816109a1565b92915050565b6000602082840312156109e3576109e261077e565b5b60006109f1848285016109b8565b91505092915050565b7f45555254207472616e73666572206661696c6564000000000000000000000000600082015250565b6000610a306014836108e1565b9150610a3b826109fa565b602082019050919050565b60006020820190508181036000830152610a5f81610a23565b9050919050565b7f4e487b7100000000000000000000000000000000000000000000000000000000600052601160045260246000fd5b60008160011c9050919050565b6000808291508390505b6001851115610aec57808604811115610ac857610ac7610a66565b5b6001851615610ad75780820291505b8081029050610ae585610a95565b9450610aac565b94509492505050565b600082610b055760019050610bc1565b81610b135760009050610bc1565b8160018114610b295760028114610b3357610b62565b6001915050610bc1565b60ff841115610b4557610b44610a66565b5b8360020a915084821115610b5c57610b5b610a66565b5b50610bc1565b5060208310610133831016604e8410600b8410161715610b975782820a905083811115610b9257610b91610a66565b5b610bc1565b610ba48484846001610aa2565b92509050818404811115610bbb57610bba610a66565b5b81810290505b9392505050565b6000610bd382610783565b9150610bde83610783565b9250610c0b7fffffffffffffffffffffffffffffffffffffffffffffffffffffffffffffffff8484610af5565b905092915050565b6000610c1e82610783565b9150610c2983610783565b9250828202610c3781610783565b91508282048414831517610c4e57610c4d610a66565b5b5092915050565b7f4e487b7100000000000000000000000000000000000000000000000000000000600052601260045260246000fd5b6000610c8f82610783565b9150610c9a83610783565b925082610caa57610ca9610c55565b5b828204905092915050565b6000604082019050610cca6000830185610822565b610cd760208301846107e6565b9392505050565b6000604082019050610cf360008301856107e6565b610d0060208301846107e6565b9392505050565b7f52617465206d7573742062652067726561746572207468616e20300000000000600082015250565b6000610d3d601b836108e1565b9150610d4882610d07565b602082019050919050565b60006020820190508181036000830152610d6c81610d30565b905091905056fea2646970667358221220850968ad3d201252a7440c75f6b805e4ac12e8738fe82978032f135cb83743b864736f6c63430008140033",
          "opcodes": "PUSH1 0x80 PUSH1 0x40 MSTORE CALLVALUE DUP1 ISZERO PUSH3 0x11 JUMPI PUSH1 0x0 DUP1 REVERT JUMPDEST POP PUSH1 0x40 MLOAD PUSH3 0x10FD CODESIZE SUB DUP1 PUSH3 0x10FD DUP4 CODECOPY DUP2 DUP2 ADD PUSH1 0x40 MSTORE DUP2 ADD SWAP1 PUSH3 0x37 SWAP2 SWAP1 PUSH3 0x2BA JUMP JUMPDEST CALLER PUSH1 0x0 PUSH20 0xFFFFFFFFFFFFFFFFFFFFFFFFFFFFFFFFFFFFFFFF AND DUP2 PUSH20 0xFFFFFFFFFFFFFFFFFFFFFFFFFFFFFFFFFFFFFFFF AND SUB PUSH3 0xAD JUMPI PUSH1 0x0 PUSH1 0x40 MLOAD PUSH32 0x1E4FBDF700000000000000000000000000000000000000000000000000000000 DUP2 MSTORE PUSH1 0x4 ADD PUSH3 0xA4 SWAP2 SWAP1 PUSH3 0x327 JUMP JUMPDEST PUSH1 0x40 MLOAD DUP1 SWAP2 SUB SWAP1 REVERT JUMPDEST PUSH3 0xBE DUP2 PUSH3 0x151 PUSH1 0x20 SHL PUSH1 0x20 SHR JUMP JUMPDEST POP DUP3 PUSH1 0x1 PUSH1 0x0 PUSH2 0x100 EXP DUP2 SLOAD DUP2 PUSH20 0xFFFFFFFFFFFFFFFFFFFFFFFFFFFFFFFFFFFFFFFF MUL NOT AND SWAP1 DUP4 PUSH20 0xFFFFFFFFFFFFFFFFFFFFFFFFFFFFFFFFFFFFFFFF AND MUL OR SWAP1 SSTORE POP DUP2 PUSH1 0x2 PUSH1 0x0 PUSH2 0x100 EXP DUP2 SLOAD DUP2 PUSH20 0xFFFFFFFFFFFFFFFFFFFFFFFFFFFFFFFFFFFFFFFF MUL NOT AND SWAP1 DUP4 PUSH20 0xFFFFFFFFFFFFFFFFFFFFFFFFFFFFFFFFFFFFFFFF AND MUL OR SWAP1 SSTORE POP DUP1 PUSH1 0x3 DUP2 SWAP1 SSTORE POP POP POP POP PUSH3 0x344 JUMP JUMPDEST PUSH1 0x0 DUP1 PUSH1 0x0 SWAP1 SLOAD SWAP1 PUSH2 0x100 EXP SWAP1 DIV PUSH20 0xFFFFFFFFFFFFFFFFFFFFFFFFFFFFFFFFFFFFFFFF AND SWAP1 POP DUP2 PUSH1 0x0 DUP1 PUSH2 0x100 EXP DUP2 SLOAD DUP2 PUSH20 0xFFFFFFFFFFFFFFFFFFFFFFFFFFFFFFFFFFFFFFFF MUL NOT AND SWAP1 DUP4 PUSH20 0xFFFFFFFFFFFFFFFFFFFFFFFFFFFFFFFFFFFFFFFF AND MUL OR SWAP1 SSTORE POP DUP2 PUSH20 0xFFFFFFFFFFFFFFFFFFFFFFFFFFFFFFFFFFFFFFFF AND DUP2 PUSH20 0xFFFFFFFFFFFFFFFFFFFFFFFFFFFFFFFFFFFFFFFF AND PUSH32 0x8BE0079C531659141344CD1FD0A4F28419497F9722A3DAAFE3B4186F6B6457E0 PUSH1 0x40 MLOAD PUSH1 0x40 MLOAD DUP1 SWAP2 SUB SWAP1 LOG3 POP POP JUMP JUMPDEST PUSH1 0x0 DUP1 REVERT JUMPDEST PUSH1 0x0 PUSH20 0xFFFFFFFFFFFFFFFFFFFFFFFFFFFFFFFFFFFFFFFF DUP3 AND SWAP1 POP SWAP2 SWAP1 POP JUMP JUMPDEST PUSH1 0x0 PUSH3 0x247 DUP3 PUSH3 0x21A JUMP JUMPDEST SWAP1 POP SWAP2 SWAP1 POP JUMP JUMPDEST PUSH3 0x259 DUP2 PUSH3 0x23A JUMP JUMPDEST DUP2 EQ PUSH3 0x265 JUMPI PUSH1 0x0 DUP1 REVERT JUMPDEST POP JUMP JUMPDEST PUSH1 0x0 DUP2 MLOAD SWAP1 POP PUSH3 0x279 DUP2 PUSH3 0x24E JUMP JUMPDEST SWAP3 SWAP2 POP POP JUMP JUMPDEST PUSH1 0x0 DUP2 SWAP1 POP SWAP2 SWAP1 POP JUMP JUMPDEST PUSH3 0x294 DUP2 PUSH3 0x27F JUMP JUMPDEST DUP2 EQ PUSH3 0x2A0 JUMPI PUSH1 0x0 DUP1 REVERT JUMPDEST POP JUMP JUMPDEST PUSH1 0x0 DUP2 MLOAD SWAP1 POP PUSH3 0x2B4 DUP2 PUSH3 0x289 JUMP JUMPDEST SWAP3 SWAP2 POP POP JUMP JUMPDEST PUSH1 0x0 DUP1 PUSH1 0x0 PUSH1 0x60 DUP5 DUP7 SUB SLT ISZERO PUSH3 0x2D6 JUMPI PUSH3 0x2D5 PUSH3 0x215 JUMP JUMPDEST JUMPDEST PUSH1 0x0 PUSH3 0x2E6 DUP7 DUP3 DUP8 ADD PUSH3 0x268 JUMP JUMPDEST SWAP4 POP POP PUSH1 0x20 PUSH3 0x2F9 DUP7 DUP3 DUP8 ADD PUSH3 0x268 JUMP JUMPDEST SWAP3 POP POP PUSH1 0x40 PUSH3 0x30C DUP7 DUP3 DUP8 ADD PUSH3 0x2A3 JUMP JUMPDEST SWAP2 POP POP SWAP3 POP SWAP3 POP SWAP3 JUMP JUMPDEST PUSH3 0x321 DUP2 PUSH3 0x23A JUMP JUMPDEST DUP3 MSTORE POP POP JUMP JUMPDEST PUSH1 0x0 PUSH1 0x20 DUP3 ADD SWAP1 POP PUSH3 0x33E PUSH1 0x0 DUP4 ADD DUP5 PUSH3 0x316 JUMP JUMPDEST SWAP3 SWAP2 POP POP JUMP JUMPDEST PUSH2 0xDA9 DUP1 PUSH3 0x354 PUSH1 0x0 CODECOPY PUSH1 0x0 RETURN INVALID PUSH1 0x80 PUSH1 0x40 MSTORE CALLVALUE DUP1 ISZERO PUSH2 0x10 JUMPI PUSH1 0x0 DUP1 REVERT JUMPDEST POP PUSH1 0x4 CALLDATASIZE LT PUSH2 0x88 JUMPI PUSH1 0x0 CALLDATALOAD PUSH1 0xE0 SHR DUP1 PUSH4 0x8DA5CB5B GT PUSH2 0x5B JUMPI DUP1 PUSH4 0x8DA5CB5B EQ PUSH2 0xEF JUMPI DUP1 PUSH4 0x99B4E961 EQ PUSH2 0x10D JUMPI DUP1 PUSH4 0xD2E80494 EQ PUSH2 0x12B JUMPI DUP1 PUSH4 0xF2FDE38B EQ PUSH2 0x147 JUMPI PUSH2 0x88 JUMP JUMPDEST DUP1 PUSH4 0x3283F641 EQ PUSH2 0x8D JUMPI DUP1 PUSH4 0x55383E05 EQ PUSH2 0xAB JUMPI DUP1 PUSH4 0x715018A6 EQ PUSH2 0xC7 JUMPI DUP1 PUSH4 0x7FFDF53E EQ PUSH2 0xD1 JUMPI JUMPDEST PUSH1 0x0 DUP1 REVERT JUMPDEST PUSH2 0x95 PUSH2 0x163 JUMP JUMPDEST PUSH1 0x40 MLOAD PUSH2 0xA2 SWAP2 SWAP1 PUSH2 0x763 JUMP JUMPDEST PUSH1 0x40 MLOAD DUP1 SWAP2 SUB SWAP1 RETURN JUMPDEST PUSH2 0xC5 PUSH1 0x4 DUP1 CALLDATASIZE SUB DUP2 ADD SWAP1 PUSH2 0xC0 SWAP2 SWAP1 PUSH2 0x7B9 JUMP JUMPDEST PUSH2 0x189 JUMP JUMPDEST STOP JUMPDEST PUSH2 0xCF PUSH2 0x44D JUMP JUMPDEST STOP JUMPDEST PUSH2 0xD9 PUSH2 0x461 JUMP JUMPDEST PUSH1 0x40 MLOAD PUSH2 0xE6 SWAP2 SWAP1 PUSH2 0x7F5 JUMP JUMPDEST PUSH1 0x40 MLOAD DUP1 SWAP2 SUB SWAP1 RETURN JUMPDEST PUSH2 0xF7 PUSH2 0x467 JUMP JUMPDEST PUSH1 0x40 MLOAD PUSH2 0x104 SWAP2 SWAP1 PUSH2 0x831 JUMP JUMPDEST PUSH1 0x40 MLOAD DUP1 SWAP2 SUB SWAP1 RETURN JUMPDEST PUSH2 0x115 PUSH2 0x490 JUMP JUMPDEST PUSH1 0x40 MLOAD PUSH2 0x122 SWAP2 SWAP1 PUSH2 0x86D JUMP JUMPDEST PUSH1 0x40 MLOAD DUP1 SWAP2 SUB SWAP1 RETURN JUMPDEST PUSH2 0x145 PUSH1 0x4 DUP1 CALLDATASIZE SUB DUP2 ADD SWAP1 PUSH2 0x140 SWAP2 SWAP1 PUSH2 0x7B9 JUMP JUMPDEST PUSH2 0x4B6 JUMP JUMPDEST STOP JUMPDEST PUSH2 0x161 PUSH1 0x4 DUP1 CALLDATASIZE SUB DUP2 ADD SWAP1 PUSH2 0x15C SWAP2 SWAP1 PUSH2 0x8B4 JUMP JUMPDEST PUSH2 0x50B JUMP JUMPDEST STOP JUMPDEST PUSH1 0x2 PUSH1 0x0 SWAP1 SLOAD SWAP1 PUSH2 0x100 EXP SWAP1 DIV PUSH20 0xFFFFFFFFFFFFFFFFFFFFFFFFFFFFFFFFFFFFFFFF AND DUP2 JUMP JUMPDEST PUSH1 0x0 DUP2 GT PUSH2 0x1CC JUMPI PUSH1 0x40 MLOAD PUSH32 0x8C379A000000000000000000000000000000000000000000000000000000000 DUP2 MSTORE PUSH1 0x4 ADD PUSH2 0x1C3 SWAP1 PUSH2 0x93E JUMP JUMPDEST PUSH1 0x40 MLOAD DUP1 SWAP2 SUB SWAP1 REVERT JUMPDEST PUSH1 0x0 PUSH1 0x1 PUSH1 0x0 SWAP1 SLOAD SWAP1 PUSH2 0x100 EXP SWAP1 DIV PUSH20 0xFFFFFFFFFFFFFFFFFFFFFFFFFFFFFFFFFFFFFFFF AND PUSH20 0xFFFFFFFFFFFFFFFFFFFFFFFFFFFFFFFFFFFFFFFF AND PUSH4 0x23B872DD CALLER ADDRESS DUP6 PUSH1 0x40 MLOAD DUP5 PUSH4 0xFFFFFFFF AND PUSH1 0xE0 SHL DUP2 MSTORE PUSH1 0x4 ADD PUSH2 0x22D SWAP4 SWAP3 SWAP2 SWAP1 PUSH2 0x95E JUMP JUMPDEST PUSH1 0x20 PUSH1 0x40 MLOAD DUP1 DUP4 SUB DUP2 PUSH1 0x0 DUP8 GAS CALL ISZERO DUP1 ISZERO PUSH2 0x24C JUMPI RETURNDATASIZE PUSH1 0x0 DUP1 RETURNDATACOPY RETURNDATASIZE PUSH1 0x0 REVERT JUMPDEST POP POP POP POP PUSH1 0x40 MLOAD RETURNDATASIZE PUSH1 0x1F NOT PUSH1 0x1F DUP3 ADD AND DUP3 ADD DUP1 PUSH1 0x40 MSTORE POP DUP2 ADD SWAP1 PUSH2 0x270 SWAP2 SWAP1 PUSH2 0x9CD JUMP JUMPDEST SWAP1 POP DUP1 PUSH2 0x2B2 JUMPI PUSH1 0x40 MLOAD PUSH32 0x8C379A000000000000000000000000000000000000000000000000000000000 DUP2 MSTORE PUSH1 0x4 ADD PUSH2 0x2A9 SWAP1 PUSH2 0xA46 JUMP JUMPDEST PUSH1 0x40 MLOAD DUP1 SWAP2 SUB SWAP1 REVERT JUMPDEST PUSH1 0x1 PUSH1 0x0 SWAP1 SLOAD SWAP1 PUSH2 0x100 EXP SWAP1 DIV PUSH20 0xFFFFFFFFFFFFFFFFFFFFFFFFFFFFFFFFFFFFFFFF AND PUSH20 0xFFFFFFFFFFFFFFFFFFFFFFFFFFFFFFFFFFFFFFFF AND PUSH4 0x42966C68 DUP4 PUSH1 0x40 MLOAD DUP3 PUSH4 0xFFFFFFFF AND PUSH1 0xE0 SHL DUP2 MSTORE PUSH1 0x4 ADD PUSH2 0x30D SWAP2 SWAP1 PUSH2 0x7F5 JUMP JUMPDEST PUSH1 0x0 PUSH1 0x40 MLOAD DUP1 DUP4 SUB DUP2 PUSH1 0x0 DUP8 DUP1 EXTCODESIZE ISZERO DUP1 ISZERO PUSH2 0x327 JUMPI PUSH1 0x0 DUP1 REVERT JUMPDEST POP GAS CALL ISZERO DUP1 ISZERO PUSH2 0x33B JUMPI RETURNDATASIZE PUSH1 0x0 DUP1 RETURNDATACOPY RETURNDATASIZE PUSH1 0x0 REVERT JUMPDEST POP POP POP POP PUSH1 0x0 PUSH1 0x3 SLOAD PUSH1 0xC PUSH1 0xA PUSH2 0x352 SWAP2 SWAP1 PUSH2 0xBC8 JUMP JUMPDEST DUP5 PUSH2 0x35D SWAP2 SWAP1 PUSH2 0xC13 JUMP JUMPDEST PUSH2 0x367 SWAP2 SWAP1 PUSH2 0xC84 JUMP JUMPDEST SWAP1 POP PUSH1 0x2 PUSH1 0x0 SWAP1 SLOAD SWAP1 PUSH2 0x100 EXP SWAP1 DIV PUSH20 0xFFFFFFFFFFFFFFFFFFFFFFFFFFFFFFFFFFFFFFFF AND PUSH20 0xFFFFFFFFFFFFFFFFFFFFFFFFFFFFFFFFFFFFFFFF AND PUSH4 0x40C10F19 CALLER DUP4 PUSH1 0x40 MLOAD DUP4 PUSH4 0xFFFFFFFF AND PUSH1 0xE0 SHL DUP2 MSTORE PUSH1 0x4 ADD PUSH2 0x3C6 SWAP3 SWAP2 SWAP1 PUSH2 0xCB5 JUMP JUMPDEST PUSH1 0x0 PUSH1 0x40 MLOAD DUP1 DUP4 SUB DUP2 PUSH1 0x0 DUP8 DUP1 EXTCODESIZE ISZERO DUP1 ISZERO PUSH2 0x3E0 JUMPI PUSH1 0x0 DUP1 REVERT JUMPDEST POP GAS CALL ISZERO DUP1 ISZERO PUSH2 0x3F4 JUMPI RETURNDATASIZE PUSH1 0x0 DUP1 RETURNDATACOPY RETURNDATASIZE PUSH1 0x0 REVERT JUMPDEST POP POP POP POP CALLER PUSH20 0xFFFFFFFFFFFFFFFFFFFFFFFFFFFFFFFFFFFFFFFF AND PUSH32 0x2D043CE009FF53FD444B0F4F5FF4C3F4EE293265203F77F156EEB33B595DFC4F DUP5 DUP4 PUSH1 0x40 MLOAD PUSH2 0x440 SWAP3 SWAP2 SWAP1 PUSH2 0xCDE JUMP JUMPDEST PUSH1 0x40 MLOAD DUP1 SWAP2 SUB SWAP1 LOG2 POP POP POP JUMP JUMPDEST PUSH2 0x455 PUSH2 0x591 JUMP JUMPDEST PUSH2 0x45F PUSH1 0x0 PUSH2 0x618 JUMP JUMPDEST JUMP JUMPDEST PUSH1 0x3 SLOAD DUP2 JUMP JUMPDEST PUSH1 0x0 DUP1 PUSH1 0x0 SWAP1 SLOAD SWAP1 PUSH2 0x100 EXP SWAP1 DIV PUSH20 0xFFFFFFFFFFFFFFFFFFFFFFFFFFFFFFFFFFFFFFFF AND SWAP1 POP SWAP1 JUMP JUMPDEST PUSH1 0x1 PUSH1 0x0 SWAP1 SLOAD SWAP1 PUSH2 0x100 EXP SWAP1 DIV PUSH20 0xFFFFFFFFFFFFFFFFFFFFFFFFFFFFFFFFFFFFFFFF AND DUP2 JUMP JUMPDEST PUSH2 0x4BE PUSH2 0x591 JUMP JUMPDEST PUSH1 0x0 DUP2 GT PUSH2 0x501 JUMPI PUSH1 0x40 MLOAD PUSH32 0x8C379A000000000000000000000000000000000000000000000000000000000 DUP2 MSTORE PUSH1 0x4 ADD PUSH2 0x4F8 SWAP1 PUSH2 0xD53 JUMP JUMPDEST PUSH1 0x40 MLOAD DUP1 SWAP2 SUB SWAP1 REVERT JUMPDEST DUP1 PUSH1 0x3 DUP2 SWAP1 SSTORE POP POP JUMP JUMPDEST PUSH2 0x513 PUSH2 0x591 JUMP JUMPDEST PUSH1 0x0 PUSH20 0xFFFFFFFFFFFFFFFFFFFFFFFFFFFFFFFFFFFFFFFF AND DUP2 PUSH20 0xFFFFFFFFFFFFFFFFFFFFFFFFFFFFFFFFFFFFFFFF AND SUB PUSH2 0x585 JUMPI PUSH1 0x0 PUSH1 0x40 MLOAD PUSH32 0x1E4FBDF700000000000000000000000000000000000000000000000000000000 DUP2 MSTORE PUSH1 0x4 ADD PUSH2 0x57C SWAP2 SWAP1 PUSH2 0x831 JUMP JUMPDEST PUSH1 0x40 MLOAD DUP1 SWAP2 SUB SWAP1 REVERT JUMPDEST PUSH2 0x58E DUP2 PUSH2 0x618 JUMP JUMPDEST POP JUMP JUMPDEST PUSH2 0x599 PUSH2 0x6DC JUMP JUMPDEST PUSH20 0xFFFFFFFFFFFFFFFFFFFFFFFFFFFFFFFFFFFFFFFF AND PUSH2 0x5B7 PUSH2 0x467 JUMP JUMPDEST PUSH20 0xFFFFFFFFFFFFFFFFFFFFFFFFFFFFFFFFFFFFFFFF AND EQ PUSH2 0x616 JUMPI PUSH2 0x5DA PUSH2 0x6DC JUMP JUMPDEST PUSH1 0x40 MLOAD PUSH32 0x118CDAA700000000000000000000000000000000000000000000000000000000 DUP2 MSTORE PUSH1 0x4 ADD PUSH2 0x60D SWAP2 SWAP1 PUSH2 0x831 JUMP JUMPDEST PUSH1 0x40 MLOAD DUP1 SWAP2 SUB SWAP1 REVERT JUMPDEST JUMP JUMPDEST PUSH1 0x0 DUP1 PUSH1 0x0 SWAP1 SLOAD SWAP1 PUSH2 0x100 EXP SWAP1 DIV PUSH20 0xFFFFFFFFFFFFFFFFFFFFFFFFFFFFFFFFFFFFFFFF AND SWAP1 POP DUP2 PUSH1 0x0 DUP1 PUSH2 0x100 EXP DUP2 SLOAD DUP2 PUSH20 0xFFFFFFFFFFFFFFFFFFFFFFFFFFFFFFFFFFFFFFFF MUL NOT AND SWAP1 DUP4 PUSH20 0xFFFFFFFFFFFFFFFFFFFFFFFFFFFFFFFFFFFFFFFF AND MUL OR SWAP1 SSTORE POP DUP2 PUSH20 0xFFFFFFFFFFFFFFFFFFFFFFFFFFFFFFFFFFFFFFFF AND DUP2 PUSH20 0xFFFFFFFFFFFFFFFFFFFFFFFFFFFFFFFFFFFFFFFF AND PUSH32 0x8BE0079C531659141344CD1FD0A4F28419497F9722A3DAAFE3B4186F6B6457E0 PUSH1 0x40 MLOAD PUSH1 0x40 MLOAD DUP1 SWAP2 SUB SWAP1 LOG3 POP POP JUMP JUMPDEST PUSH1 0x0 CALLER SWAP1 POP SWAP1 JUMP JUMPDEST PUSH1 0x0 PUSH20 0xFFFFFFFFFFFFFFFFFFFFFFFFFFFFFFFFFFFFFFFF DUP3 AND SWAP1 POP SWAP2 SWAP1 POP JUMP JUMPDEST PUSH1 0x0 DUP2 SWAP1 POP SWAP2 SWAP1 POP JUMP JUMPDEST PUSH1 0x0 PUSH2 0x729 PUSH2 0x724 PUSH2 0x71F DUP5 PUSH2 0x6E4 JUMP JUMPDEST PUSH2 0x704 JUMP JUMPDEST PUSH2 0x6E4 JUMP JUMPDEST SWAP1 POP SWAP2 SWAP1 POP JUMP JUMPDEST PUSH1 0x0 PUSH2 0x73B DUP3 PUSH2 0x70E JUMP JUMPDEST SWAP1 POP SWAP2 SWAP1 POP JUMP JUMPDEST PUSH1 0x0 PUSH2 0x74D DUP3 PUSH2 0x730 JUMP JUMPDEST SWAP1 POP SWAP2 SWAP1 POP JUMP JUMPDEST PUSH2 0x75D DUP2 PUSH2 0x742 JUMP JUMPDEST DUP3 MSTORE POP POP JUMP JUMPDEST PUSH1 0x0 PUSH1 0x20 DUP3 ADD SWAP1 POP PUSH2 0x778 PUSH1 0x0 DUP4 ADD DUP5 PUSH2 0x754 JUMP JUMPDEST SWAP3 SWAP2 POP POP JUMP JUMPDEST PUSH1 0x0 DUP1 REVERT JUMPDEST PUSH1 0x0 DUP2 SWAP1 POP SWAP2 SWAP1 POP JUMP JUMPDEST PUSH2 0x796 DUP2 PUSH2 0x783 JUMP JUMPDEST DUP2 EQ PUSH2 0x7A1 JUMPI PUSH1 0x0 DUP1 REVERT JUMPDEST POP JUMP JUMPDEST PUSH1 0x0 DUP2 CALLDATALOAD SWAP1 POP PUSH2 0x7B3 DUP2 PUSH2 0x78D JUMP JUMPDEST SWAP3 SWAP2 POP POP JUMP JUMPDEST PUSH1 0x0 PUSH1 0x20 DUP3 DUP5 SUB SLT ISZERO PUSH2 0x7CF JUMPI PUSH2 0x7CE PUSH2 0x77E JUMP JUMPDEST JUMPDEST PUSH1 0x0 PUSH2 0x7DD DUP5 DUP3 DUP6 ADD PUSH2 0x7A4 JUMP JUMPDEST SWAP2 POP POP SWAP3 SWAP2 POP POP JUMP JUMPDEST PUSH2 0x7EF DUP2 PUSH2 0x783 JUMP JUMPDEST DUP3 MSTORE POP POP JUMP JUMPDEST PUSH1 0x0 PUSH1 0x20 DUP3 ADD SWAP1 POP PUSH2 0x80A PUSH1 0x0 DUP4 ADD DUP5 PUSH2 0x7E6 JUMP JUMPDEST SWAP3 SWAP2 POP POP JUMP JUMPDEST PUSH1 0x0 PUSH2 0x81B DUP3 PUSH2 0x6E4 JUMP JUMPDEST SWAP1 POP SWAP2 SWAP1 POP JUMP JUMPDEST PUSH2 0x82B DUP2 PUSH2 0x810 JUMP JUMPDEST DUP3 MSTORE POP POP JUMP JUMPDEST PUSH1 0x0 PUSH1 0x20 DUP3 ADD SWAP1 POP PUSH2 0x846 PUSH1 0x0 DUP4 ADD DUP5 PUSH2 0x822 JUMP JUMPDEST SWAP3 SWAP2 POP POP JUMP JUMPDEST PUSH1 0x0 PUSH2 0x857 DUP3 PUSH2 0x730 JUMP JUMPDEST SWAP1 POP SWAP2 SWAP1 POP JUMP JUMPDEST PUSH2 0x867 DUP2 PUSH2 0x84C JUMP JUMPDEST DUP3 MSTORE POP POP JUMP JUMPDEST PUSH1 0x0 PUSH1 0x20 DUP3 ADD SWAP1 POP PUSH2 0x882 PUSH1 0x0 DUP4 ADD DUP5 PUSH2 0x85E JUMP JUMPDEST SWAP3 SWAP2 POP POP JUMP JUMPDEST PUSH2 0x891 DUP2 PUSH2 0x810 JUMP JUMPDEST DUP2 EQ PUSH2 0x89C JUMPI PUSH1 0x0 DUP1 REVERT JUMPDEST POP JUMP JUMPDEST PUSH1 0x0 DUP2 CALLDATALOAD SWAP1 POP PUSH2 0x8AE DUP2 PUSH2 0x888 JUMP JUMPDEST SWAP3 SWAP2 POP POP JUMP JUMPDEST PUSH1 0x0 PUSH1 0x20 DUP3 DUP5 SUB SLT ISZERO PUSH2 0x8CA JUMPI PUSH2 0x8C9 PUSH2 0x77E JUMP JUMPDEST JUMPDEST PUSH1 0x0 PUSH2 0x8D8 DUP5 DUP3 DUP6 ADD PUSH2 0x89F JUMP JUMPDEST SWAP2 POP POP SWAP3 SWAP2 POP POP JUMP JUMPDEST PUSH1 0x0 DUP3 DUP3 MSTORE PUSH1 0x20 DUP3 ADD SWAP1 POP SWAP3 SWAP2 POP POP JUMP JUMPDEST PUSH32 0x416D6F756E74206D7573742062652067726561746572207468616E2030000000 PUSH1 0x0 DUP3 ADD MSTORE POP JUMP JUMPDEST PUSH1 0x0 PUSH2 0x928 PUSH1 0x1D DUP4 PUSH2 0x8E1 JUMP JUMPDEST SWAP2 POP PUSH2 0x933 DUP3 PUSH2 0x8F2 JUMP JUMPDEST PUSH1 0x20 DUP3 ADD SWAP1 POP SWAP2 SWAP1 POP JUMP JUMPDEST PUSH1 0x0 PUSH1 0x20 DUP3 ADD SWAP1 POP DUP2 DUP2 SUB PUSH1 0x0 DUP4 ADD MSTORE PUSH2 0x957 DUP2 PUSH2 0x91B JUMP JUMPDEST SWAP1 POP SWAP2 SWAP1 POP JUMP JUMPDEST PUSH1 0x0 PUSH1 0x60 DUP3 ADD SWAP1 POP PUSH2 0x973 PUSH1 0x0 DUP4 ADD DUP7 PUSH2 0x822 JUMP JUMPDEST PUSH2 0x980 PUSH1 0x20 DUP4 ADD DUP6 PUSH2 0x822 JUMP JUMPDEST PUSH2 0x98D PUSH1 0x40 DUP4 ADD DUP5 PUSH2 0x7E6 JUMP JUMPDEST SWAP5 SWAP4 POP POP POP POP JUMP JUMPDEST PUSH1 0x0 DUP2 ISZERO ISZERO SWAP1 POP SWAP2 SWAP1 POP JUMP JUMPDEST PUSH2 0x9AA DUP2 PUSH2 0x995 JUMP JUMPDEST DUP2 EQ PUSH2 0x9B5 JUMPI PUSH1 0x0 DUP1 REVERT JUMPDEST POP JUMP JUMPDEST PUSH1 0x0 DUP2 MLOAD SWAP1 POP PUSH2 0x9C7 DUP2 PUSH2 0x9A1 JUMP JUMPDEST SWAP3 SWAP2 POP POP JUMP JUMPDEST PUSH1 0x0 PUSH1 0x20 DUP3 DUP5 SUB SLT ISZERO PUSH2 0x9E3 JUMPI PUSH2 0x9E2 PUSH2 0x77E JUMP JUMPDEST JUMPDEST PUSH1 0x0 PUSH2 0x9F1 DUP5 DUP3 DUP6 ADD PUSH2 0x9B8 JUMP JUMPDEST SWAP2 POP POP SWAP3 SWAP2 POP POP JUMP JUMPDEST PUSH32 0x45555254207472616E73666572206661696C6564000000000000000000000000 PUSH1 0x0 DUP3 ADD MSTORE POP JUMP JUMPDEST PUSH1 0x0 PUSH2 0xA30 PUSH1 0x14 DUP4 PUSH2 0x8E1 JUMP JUMPDEST SWAP2 POP PUSH2 0xA3B DUP3 PUSH2 0x9FA JUMP JUMPDEST PUSH1 0x20 DUP3 ADD SWAP1 POP SWAP2 SWAP1 POP JUMP JUMPDEST PUSH1 0x0 PUSH1 0x20 DUP3 ADD SWAP1 POP DUP2 DUP2 SUB PUSH1 0x0 DUP4 ADD MSTORE PUSH2 0xA5F DUP2 PUSH2 0xA23 JUMP JUMPDEST SWAP1 POP SWAP2 SWAP1 POP JUMP JUMPDEST PUSH32 0x4E487B7100000000000000000000000000000000000000000000000000000000 PUSH1 0x0 MSTORE PUSH1 0x11 PUSH1 0x4 MSTORE PUSH1 0x24 PUSH1 0x0 REVERT JUMPDEST PUSH1 0x0 DUP2 PUSH1 0x1 SHR SWAP1 POP SWAP2 SWAP1 POP JUMP JUMPDEST PUSH1 0x0 DUP1 DUP3 SWAP2 POP DUP4 SWAP1 POP JUMPDEST PUSH1 0x1 DUP6 GT ISZERO PUSH2 0xAEC JUMPI DUP1 DUP7 DIV DUP2 GT ISZERO PUSH2 0xAC8 JUMPI PUSH2 0xAC7 PUSH2 0xA66 JUMP JUMPDEST JUMPDEST PUSH1 0x1 DUP6 AND ISZERO PUSH2 0xAD7 JUMPI DUP1 DUP3 MUL SWAP2 POP JUMPDEST DUP1 DUP2 MUL SWAP1 POP PUSH2 0xAE5 DUP6 PUSH2 0xA95 JUMP JUMPDEST SWAP5 POP PUSH2 0xAAC JUMP JUMPDEST SWAP5 POP SWAP5 SWAP3 POP POP POP JUMP JUMPDEST PUSH1 0x0 DUP3 PUSH2 0xB05 JUMPI PUSH1 0x1 SWAP1 POP PUSH2 0xBC1 JUMP JUMPDEST DUP2 PUSH2 0xB13 JUMPI PUSH1 0x0 SWAP1 POP PUSH2 0xBC1 JUMP JUMPDEST DUP2 PUSH1 0x1 DUP2 EQ PUSH2 0xB29 JUMPI PUSH1 0x2 DUP2 EQ PUSH2 0xB33 JUMPI PUSH2 0xB62 JUMP JUMPDEST PUSH1 0x1 SWAP2 POP POP PUSH2 0xBC1 JUMP JUMPDEST PUSH1 0xFF DUP5 GT ISZERO PUSH2 0xB45 JUMPI PUSH2 0xB44 PUSH2 0xA66 JUMP JUMPDEST JUMPDEST DUP4 PUSH1 0x2 EXP SWAP2 POP DUP5 DUP3 GT ISZERO PUSH2 0xB5C JUMPI PUSH2 0xB5B PUSH2 0xA66 JUMP JUMPDEST JUMPDEST POP PUSH2 0xBC1 JUMP JUMPDEST POP PUSH1 0x20 DUP4 LT PUSH2 0x133 DUP4 LT AND PUSH1 0x4E DUP5 LT PUSH1 0xB DUP5 LT AND OR ISZERO PUSH2 0xB97 JUMPI DUP3 DUP3 EXP SWAP1 POP DUP4 DUP2 GT ISZERO PUSH2 0xB92 JUMPI PUSH2 0xB91 PUSH2 0xA66 JUMP JUMPDEST JUMPDEST PUSH2 0xBC1 JUMP JUMPDEST PUSH2 0xBA4 DUP5 DUP5 DUP5 PUSH1 0x1 PUSH2 0xAA2 JUMP JUMPDEST SWAP3 POP SWAP1 POP DUP2 DUP5 DIV DUP2 GT ISZERO PUSH2 0xBBB JUMPI PUSH2 0xBBA PUSH2 0xA66 JUMP JUMPDEST JUMPDEST DUP2 DUP2 MUL SWAP1 POP JUMPDEST SWAP4 SWAP3 POP POP POP JUMP JUMPDEST PUSH1 0x0 PUSH2 0xBD3 DUP3 PUSH2 0x783 JUMP JUMPDEST SWAP2 POP PUSH2 0xBDE DUP4 PUSH2 0x783 JUMP JUMPDEST SWAP3 POP PUSH2 0xC0B PUSH32 0xFFFFFFFFFFFFFFFFFFFFFFFFFFFFFFFFFFFFFFFFFFFFFFFFFFFFFFFFFFFFFFFF DUP5 DUP5 PUSH2 0xAF5 JUMP JUMPDEST SWAP1 POP SWAP3 SWAP2 POP POP JUMP JUMPDEST PUSH1 0x0 PUSH2 0xC1E DUP3 PUSH2 0x783 JUMP JUMPDEST SWAP2 POP PUSH2 0xC29 DUP4 PUSH2 0x783 JUMP JUMPDEST SWAP3 POP DUP3 DUP3 MUL PUSH2 0xC37 DUP2 PUSH2 0x783 JUMP JUMPDEST SWAP2 POP DUP3 DUP3 DIV DUP5 EQ DUP4 ISZERO OR PUSH2 0xC4E JUMPI PUSH2 0xC4D PUSH2 0xA66 JUMP JUMPDEST JUMPDEST POP SWAP3 SWAP2 POP POP JUMP JUMPDEST PUSH32 0x4E487B7100000000000000000000000000000000000000000000000000000000 PUSH1 0x0 MSTORE PUSH1 0x12 PUSH1 0x4 MSTORE PUSH1 0x24 PUSH1 0x0 REVERT JUMPDEST PUSH1 0x0 PUSH2 0xC8F DUP3 PUSH2 0x783 JUMP JUMPDEST SWAP2 POP PUSH2 0xC9A DUP4 PUSH2 0x783 JUMP JUMPDEST SWAP3 POP DUP3 PUSH2 0xCAA JUMPI PUSH2 0xCA9 PUSH2 0xC55 JUMP JUMPDEST JUMPDEST DUP3 DUP3 DIV SWAP1 POP SWAP3 SWAP2 POP POP JUMP JUMPDEST PUSH1 0x0 PUSH1 0x40 DUP3 ADD SWAP1 POP PUSH2 0xCCA PUSH1 0x0 DUP4 ADD DUP6 PUSH2 0x822 JUMP JUMPDEST PUSH2 0xCD7 PUSH1 0x20 DUP4 ADD DUP5 PUSH2 0x7E6 JUMP JUMPDEST SWAP4 SWAP3 POP POP POP JUMP JUMPDEST PUSH1 0x0 PUSH1 0x40 DUP3 ADD SWAP1 POP PUSH2 0xCF3 PUSH1 0x0 DUP4 ADD DUP6 PUSH2 0x7E6 JUMP JUMPDEST PUSH2 0xD00 PUSH1 0x20 DUP4 ADD DUP5 PUSH2 0x7E6 JUMP JUMPDEST SWAP4 SWAP3 POP POP POP JUMP JUMPDEST PUSH32 0x52617465206D7573742062652067726561746572207468616E20300000000000 PUSH1 0x0 DUP3 ADD MSTORE POP JUMP JUMPDEST PUSH1 0x0 PUSH2 0xD3D PUSH1 0x1B DUP4 PUSH2 0x8E1 JUMP JUMPDEST SWAP2 POP PUSH2 0xD48 DUP3 PUSH2 0xD07 JUMP JUMPDEST PUSH1 0x20 DUP3 ADD SWAP1 POP SWAP2 SWAP1 POP JUMP JUMPDEST PUSH1 0x0 PUSH1 0x20 DUP3 ADD SWAP1 POP DUP2 DUP2 SUB PUSH1 0x0 DUP4 ADD MSTORE PUSH2 0xD6C DUP2 PUSH2 0xD30 JUMP JUMPDEST SWAP1 POP SWAP2 SWAP1 POP JUMP INVALID LOG2 PUSH5 0x6970667358 0x22 SLT KECCAK256 DUP6 MULMOD PUSH9 0xAD3D201252A7440C75 0xF6 0xB8 SDIV 0xE4 0xAC SLT 0xE8 PUSH20 0x8FE82978032F135CB83743B864736F6C63430008 EQ STOP CALLER "
        },
        "methodIdentifiers": {
          "conversionRate()": "7ffdf53e",
          "eurt()": "99b4e961",
          "owner()": "8da5cb5b",
          "renounceOwnership()": "715018a6",
          "setConversionRate(uint256)": "d2e80494",
          "swapEURTtoTASK(uint256)": "55383e05",
          "task()": "3283f641",
          "transferOwnership(address)": "f2fde38b"
        }
      }
    }
  }
}