{
  "contracts/TASK.sol": {
    "TASK": {
      "abi": [
        {
          "inputs": [],
          "stateMutability": "nonpayable",
          "type": "constructor"
        },
        {
          "inputs": [],
          "name": "AccessControlBadConfirmation",
          "type": "error"
        },
        {
          "inputs": [
            {
              "internalType": "address",
              "name": "account",
              "type": "address"
            },
            {
              "internalType": "bytes32",
              "name": "neededRole",
              "type": "bytes32"
            }
          ],
          "name": "AccessControlUnauthorizedAccount",
          "type": "error"
        },
        {
          "inputs": [
            {
              "internalType": "address",
              "name": "spender",
              "type": "address"
            },
            {
              "internalType": "uint256",
              "name": "allowance",
              "type": "uint256"
            },
            {
              "internalType": "uint256",
              "name": "needed",
              "type": "uint256"
            }
          ],
          "name": "ERC20InsufficientAllowance",
          "type": "error"
        },
        {
          "inputs": [
            {
              "internalType": "address",
              "name": "sender",
              "type": "address"
            },
            {
              "internalType": "uint256",
              "name": "balance",
              "type": "uint256"
            },
            {
              "internalType": "uint256",
              "name": "needed",
              "type": "uint256"
            }
          ],
          "name": "ERC20InsufficientBalance",
          "type": "error"
        },
        {
          "inputs": [
            {
              "internalType": "address",
              "name": "approver",
              "type": "address"
            }
          ],
          "name": "ERC20InvalidApprover",
          "type": "error"
        },
        {
          "inputs": [
            {
              "internalType": "address",
              "name": "receiver",
              "type": "address"
            }
          ],
          "name": "ERC20InvalidReceiver",
          "type": "error"
        },
        {
          "inputs": [
            {
              "internalType": "address",
              "name": "sender",
              "type": "address"
            }
          ],
          "name": "ERC20InvalidSender",
          "type": "error"
        },
        {
          "inputs": [
            {
              "internalType": "address",
              "name": "spender",
              "type": "address"
            }
          ],
          "name": "ERC20InvalidSpender",
          "type": "error"
        },
        {
          "anonymous": false,
          "inputs": [
            {
              "indexed": true,
              "internalType": "address",
              "name": "owner",
              "type": "address"
            },
            {
              "indexed": true,
              "internalType": "address",
              "name": "spender",
              "type": "address"
            },
            {
              "indexed": false,
              "internalType": "uint256",
              "name": "value",
              "type": "uint256"
            }
          ],
          "name": "Approval",
          "type": "event"
        },
        {
          "anonymous": false,
          "inputs": [
            {
              "indexed": true,
              "internalType": "bytes32",
              "name": "role",
              "type": "bytes32"
            },
            {
              "indexed": true,
              "internalType": "bytes32",
              "name": "previousAdminRole",
              "type": "bytes32"
            },
            {
              "indexed": true,
              "internalType": "bytes32",
              "name": "newAdminRole",
              "type": "bytes32"
            }
          ],
          "name": "RoleAdminChanged",
          "type": "event"
        },
        {
          "anonymous": false,
          "inputs": [
            {
              "indexed": true,
              "internalType": "bytes32",
              "name": "role",
              "type": "bytes32"
            },
            {
              "indexed": true,
              "internalType": "address",
              "name": "account",
              "type": "address"
            },
            {
              "indexed": true,
              "internalType": "address",
              "name": "sender",
              "type": "address"
            }
          ],
          "name": "RoleGranted",
          "type": "event"
        },
        {
          "anonymous": false,
          "inputs": [
            {
              "indexed": true,
              "internalType": "bytes32",
              "name": "role",
              "type": "bytes32"
            },
            {
              "indexed": true,
              "internalType": "address",
              "name": "account",
              "type": "address"
            },
            {
              "indexed": true,
              "internalType": "address",
              "name": "sender",
              "type": "address"
            }
          ],
          "name": "RoleRevoked",
          "type": "event"
        },
        {
          "anonymous": false,
          "inputs": [
            {
              "indexed": true,
              "internalType": "address",
              "name": "from",
              "type": "address"
            },
            {
              "indexed": true,
              "internalType": "address",
              "name": "to",
              "type": "address"
            },
            {
              "indexed": false,
              "internalType": "uint256",
              "name": "value",
              "type": "uint256"
            }
          ],
          "name": "Transfer",
          "type": "event"
        },
        {
          "inputs": [],
          "name": "BLACKLISTER_ROLE",
          "outputs": [
            {
              "internalType": "bytes32",
              "name": "",
              "type": "bytes32"
            }
          ],
          "stateMutability": "view",
          "type": "function"
        },
        {
          "inputs": [],
          "name": "DEFAULT_ADMIN_ROLE",
          "outputs": [
            {
              "internalType": "bytes32",
              "name": "",
              "type": "bytes32"
            }
          ],
          "stateMutability": "view",
          "type": "function"
        },
        {
          "inputs": [],
          "name": "MINTER_ROLE",
          "outputs": [
            {
              "internalType": "bytes32",
              "name": "",
              "type": "bytes32"
            }
          ],
          "stateMutability": "view",
          "type": "function"
        },
        {
          "inputs": [
            {
              "internalType": "address",
              "name": "account",
              "type": "address"
            }
          ],
          "name": "addToBlacklist",
          "outputs": [],
          "stateMutability": "nonpayable",
          "type": "function"
        },
        {
          "inputs": [
            {
              "internalType": "address",
              "name": "owner",
              "type": "address"
            },
            {
              "internalType": "address",
              "name": "spender",
              "type": "address"
            }
          ],
          "name": "allowance",
          "outputs": [
            {
              "internalType": "uint256",
              "name": "",
              "type": "uint256"
            }
          ],
          "stateMutability": "view",
          "type": "function"
        },
        {
          "inputs": [
            {
              "internalType": "address",
              "name": "spender",
              "type": "address"
            },
            {
              "internalType": "uint256",
              "name": "value",
              "type": "uint256"
            }
          ],
          "name": "approve",
          "outputs": [
            {
              "internalType": "bool",
              "name": "",
              "type": "bool"
            }
          ],
          "stateMutability": "nonpayable",
          "type": "function"
        },
        {
          "inputs": [
            {
              "internalType": "address",
              "name": "account",
              "type": "address"
            }
          ],
          "name": "balanceOf",
          "outputs": [
            {
              "internalType": "uint256",
              "name": "",
              "type": "uint256"
            }
          ],
          "stateMutability": "view",
          "type": "function"
        },
        {
          "inputs": [
            {
              "internalType": "uint256",
              "name": "amount",
              "type": "uint256"
            }
          ],
          "name": "burn",
          "outputs": [],
          "stateMutability": "nonpayable",
          "type": "function"
        },
        {
          "inputs": [],
          "name": "decimals",
          "outputs": [
            {
              "internalType": "uint8",
              "name": "",
              "type": "uint8"
            }
          ],
          "stateMutability": "pure",
          "type": "function"
        },
        {
          "inputs": [
            {
              "internalType": "bytes32",
              "name": "role",
              "type": "bytes32"
            }
          ],
          "name": "getRoleAdmin",
          "outputs": [
            {
              "internalType": "bytes32",
              "name": "",
              "type": "bytes32"
            }
          ],
          "stateMutability": "view",
          "type": "function"
        },
        {
          "inputs": [
            {
              "internalType": "bytes32",
              "name": "role",
              "type": "bytes32"
            },
            {
              "internalType": "address",
              "name": "account",
              "type": "address"
            }
          ],
          "name": "grantRole",
          "outputs": [],
          "stateMutability": "nonpayable",
          "type": "function"
        },
        {
          "inputs": [
            {
              "internalType": "bytes32",
              "name": "role",
              "type": "bytes32"
            },
            {
              "internalType": "address",
              "name": "account",
              "type": "address"
            }
          ],
          "name": "hasRole",
          "outputs": [
            {
              "internalType": "bool",
              "name": "",
              "type": "bool"
            }
          ],
          "stateMutability": "view",
          "type": "function"
        },
        {
          "inputs": [
            {
              "internalType": "address",
              "name": "account",
              "type": "address"
            }
          ],
          "name": "isBlacklisted",
          "outputs": [
            {
              "internalType": "bool",
              "name": "",
              "type": "bool"
            }
          ],
          "stateMutability": "view",
          "type": "function"
        },
        {
          "inputs": [
            {
              "internalType": "address",
              "name": "to",
              "type": "address"
            },
            {
              "internalType": "uint256",
              "name": "amount",
              "type": "uint256"
            }
          ],
          "name": "mint",
          "outputs": [],
          "stateMutability": "nonpayable",
          "type": "function"
        },
        {
          "inputs": [],
          "name": "name",
          "outputs": [
            {
              "internalType": "string",
              "name": "",
              "type": "string"
            }
          ],
          "stateMutability": "view",
          "type": "function"
        },
        {
          "inputs": [
            {
              "internalType": "address",
              "name": "account",
              "type": "address"
            }
          ],
          "name": "removeFromBlacklist",
          "outputs": [],
          "stateMutability": "nonpayable",
          "type": "function"
        },
        {
          "inputs": [
            {
              "internalType": "bytes32",
              "name": "role",
              "type": "bytes32"
            },
            {
              "internalType": "address",
              "name": "callerConfirmation",
              "type": "address"
            }
          ],
          "name": "renounceRole",
          "outputs": [],
          "stateMutability": "nonpayable",
          "type": "function"
        },
        {
          "inputs": [
            {
              "internalType": "bytes32",
              "name": "role",
              "type": "bytes32"
            },
            {
              "internalType": "address",
              "name": "account",
              "type": "address"
            }
          ],
          "name": "revokeRole",
          "outputs": [],
          "stateMutability": "nonpayable",
          "type": "function"
        },
        {
          "inputs": [
            {
              "internalType": "bytes4",
              "name": "interfaceId",
              "type": "bytes4"
            }
          ],
          "name": "supportsInterface",
          "outputs": [
            {
              "internalType": "bool",
              "name": "",
              "type": "bool"
            }
          ],
          "stateMutability": "view",
          "type": "function"
        },
        {
          "inputs": [],
          "name": "symbol",
          "outputs": [
            {
              "internalType": "string",
              "name": "",
              "type": "string"
            }
          ],
          "stateMutability": "view",
          "type": "function"
        },
        {
          "inputs": [],
          "name": "totalSupply",
          "outputs": [
            {
              "internalType": "uint256",
              "name": "",
              "type": "uint256"
            }
          ],
          "stateMutability": "view",
          "type": "function"
        },
        {
          "inputs": [
            {
              "internalType": "address",
              "name": "to",
              "type": "address"
            },
            {
              "internalType": "uint256",
              "name": "value",
              "type": "uint256"
            }
          ],
          "name": "transfer",
          "outputs": [
            {
              "internalType": "bool",
              "name": "",
              "type": "bool"
            }
          ],
          "stateMutability": "nonpayable",
          "type": "function"
        },
        {
          "inputs": [
            {
              "internalType": "address",
              "name": "from",
              "type": "address"
            },
            {
              "internalType": "address",
              "name": "to",
              "type": "address"
            },
            {
              "internalType": "uint256",
              "name": "value",
              "type": "uint256"
            }
          ],
          "name": "transferFrom",
          "outputs": [
            {
              "internalType": "bool",
              "name": "",
              "type": "bool"
            }
          ],
          "stateMutability": "nonpayable",
          "type": "function"
        }
      ],
      "evm": {
        "bytecode": {
          "linkReferences": {},
          "object": "60806040523480156200001157600080fd5b506040518060400160405280600a81526020017f5461736b20546f6b656e000000000000000000000000000000000000000000008152506040518060400160405280600481526020017f5441534b0000000000000000000000000000000000000000000000000000000081525081600390816200008f919062000517565b508060049081620000a1919062000517565b505050620000b96000801b336200012660201b60201c565b50620000ec7f9f2df0fed2c77648de5860a4cc508cd0818c85b8b8a1ab4ceeef8d981c8956a6336200012660201b60201c565b506200011f7f98db8a220cd0f09badce9f22d0ba7e93edb3d404448cc3560d391ab096ad16e9336200012660201b60201c565b50620005fe565b60006200013a83836200022a60201b60201c565b6200021f5760016005600085815260200190815260200160002060000160008473ffffffffffffffffffffffffffffffffffffffff1673ffffffffffffffffffffffffffffffffffffffff16815260200190815260200160002060006101000a81548160ff021916908315150217905550620001bb6200029560201b60201c565b73ffffffffffffffffffffffffffffffffffffffff168273ffffffffffffffffffffffffffffffffffffffff16847f2f8788117e7eff1d82e926ec794901d17c78024a50270940304540a733656f0d60405160405180910390a46001905062000224565b600090505b92915050565b60006005600084815260200190815260200160002060000160008373ffffffffffffffffffffffffffffffffffffffff1673ffffffffffffffffffffffffffffffffffffffff16815260200190815260200160002060009054906101000a900460ff16905092915050565b600033905090565b600081519050919050565b7f4e487b7100000000000000000000000000000000000000000000000000000000600052604160045260246000fd5b7f4e487b7100000000000000000000000000000000000000000000000000000000600052602260045260246000fd5b600060028204905060018216806200031f57607f821691505b602082108103620003355762000334620002d7565b5b50919050565b60008190508160005260206000209050919050565b60006020601f8301049050919050565b600082821b905092915050565b6000600883026200039f7fffffffffffffffffffffffffffffffffffffffffffffffffffffffffffffffff8262000360565b620003ab868362000360565b95508019841693508086168417925050509392505050565b6000819050919050565b6000819050919050565b6000620003f8620003f2620003ec84620003c3565b620003cd565b620003c3565b9050919050565b6000819050919050565b6200041483620003d7565b6200042c6200042382620003ff565b8484546200036d565b825550505050565b600090565b6200044362000434565b6200045081848462000409565b505050565b5b8181101562000478576200046c60008262000439565b60018101905062000456565b5050565b601f821115620004c75762000491816200033b565b6200049c8462000350565b81016020851015620004ac578190505b620004c4620004bb8562000350565b83018262000455565b50505b505050565b600082821c905092915050565b6000620004ec60001984600802620004cc565b1980831691505092915050565b6000620005078383620004d9565b9150826002028217905092915050565b62000522826200029d565b67ffffffffffffffff8111156200053e576200053d620002a8565b5b6200054a825462000306565b620005578282856200047c565b600060209050601f8311600181146200058f57600084156200057a578287015190505b620005868582620004f9565b865550620005f6565b601f1984166200059f866200033b565b60005b82811015620005c957848901518255600182019150602085019450602081019050620005a2565b86831015620005e95784890151620005e5601f891682620004d9565b8355505b6001600288020188555050505b505050505050565b611c0b806200060e6000396000f3fe608060405234801561001057600080fd5b506004361061014d5760003560e01c806344337ea1116100c3578063a9059cbb1161007c578063a9059cbb146103b0578063d5391393146103e0578063d547741f146103fe578063dd62ed3e1461041a578063f515e6f21461044a578063fe575a87146104685761014d565b806344337ea1146102dc578063537df3b6146102f857806370a082311461031457806391d148541461034457806395d89b4114610374578063a217fddf146103925761014d565b8063248a9ca311610115578063248a9ca31461021e5780632f2ff15d1461024e578063313ce5671461026a57806336568abe1461028857806340c10f19146102a457806342966c68146102c05761014d565b806301ffc9a71461015257806306fdde0314610182578063095ea7b3146101a057806318160ddd146101d057806323b872dd146101ee575b600080fd5b61016c600480360381019061016791906115ac565b610498565b60405161017991906115f4565b60405180910390f35b61018a610512565b604051610197919061169f565b60405180910390f35b6101ba60048036038101906101b59190611755565b6105a4565b6040516101c791906115f4565b60405180910390f35b6101d86105c7565b6040516101e591906117a4565b60405180910390f35b610208600480360381019061020391906117bf565b6105d1565b60405161021591906115f4565b60405180910390f35b61023860048036038101906102339190611848565b610600565b6040516102459190611884565b60405180910390f35b6102686004803603810190610263919061189f565b610620565b005b610272610642565b60405161027f91906118fb565b60405180910390f35b6102a2600480360381019061029d919061189f565b61064b565b005b6102be60048036038101906102b99190611755565b6106c6565b005b6102da60048036038101906102d59190611916565b6106ff565b005b6102f660048036038101906102f19190611943565b61070c565b005b610312600480360381019061030d9190611943565b610792565b005b61032e60048036038101906103299190611943565b610818565b60405161033b91906117a4565b60405180910390f35b61035e6004803603810190610359919061189f565b610860565b60405161036b91906115f4565b60405180910390f35b61037c6108cb565b604051610389919061169f565b60405180910390f35b61039a61095d565b6040516103a79190611884565b60405180910390f35b6103ca60048036038101906103c59190611755565b610964565b6040516103d791906115f4565b60405180910390f35b6103e8610987565b6040516103f59190611884565b60405180910390f35b6104186004803603810190610413919061189f565b6109ab565b005b610434600480360381019061042f9190611970565b6109cd565b60405161044191906117a4565b60405180910390f35b610452610a54565b60405161045f9190611884565b60405180910390f35b610482600480360381019061047d9190611943565b610a78565b60405161048f91906115f4565b60405180910390f35b60007f7965db0b000000000000000000000000000000000000000000000000000000007bffffffffffffffffffffffffffffffffffffffffffffffffffffffff1916827bffffffffffffffffffffffffffffffffffffffffffffffffffffffff1916148061050b575061050a82610ace565b5b9050919050565b606060038054610521906119df565b80601f016020809104026020016040519081016040528092919081815260200182805461054d906119df565b801561059a5780601f1061056f5761010080835404028352916020019161059a565b820191906000526020600020905b81548152906001019060200180831161057d57829003601f168201915b5050505050905090565b6000806105af610b38565b90506105bc818585610b40565b600191505092915050565b6000600254905090565b6000806105dc610b38565b90506105e9858285610b52565b6105f4858585610be7565b60019150509392505050565b600060056000838152602001908152602001600020600101549050919050565b61062982610600565b61063281610cdb565b61063c8383610cef565b50505050565b60006012905090565b610653610b38565b73ffffffffffffffffffffffffffffffffffffffff168173ffffffffffffffffffffffffffffffffffffffff16146106b7576040517f6697b23200000000000000000000000000000000000000000000000000000000815260040160405180910390fd5b6106c18282610de1565b505050565b7f9f2df0fed2c77648de5860a4cc508cd0818c85b8b8a1ab4ceeef8d981c8956a66106f081610cdb565b6106fa8383610ed4565b505050565b6107093382610f56565b50565b7f98db8a220cd0f09badce9f22d0ba7e93edb3d404448cc3560d391ab096ad16e961073681610cdb565b6001600660008473ffffffffffffffffffffffffffffffffffffffff1673ffffffffffffffffffffffffffffffffffffffff16815260200190815260200160002060006101000a81548160ff0219169083151502179055505050565b7f98db8a220cd0f09badce9f22d0ba7e93edb3d404448cc3560d391ab096ad16e96107bc81610cdb565b6000600660008473ffffffffffffffffffffffffffffffffffffffff1673ffffffffffffffffffffffffffffffffffffffff16815260200190815260200160002060006101000a81548160ff0219169083151502179055505050565b60008060008373ffffffffffffffffffffffffffffffffffffffff1673ffffffffffffffffffffffffffffffffffffffff168152602001908152602001600020549050919050565b60006005600084815260200190815260200160002060000160008373ffffffffffffffffffffffffffffffffffffffff1673ffffffffffffffffffffffffffffffffffffffff16815260200190815260200160002060009054906101000a900460ff16905092915050565b6060600480546108da906119df565b80601f0160208091040260200160405190810160405280929190818152602001828054610906906119df565b80156109535780601f1061092857610100808354040283529160200191610953565b820191906000526020600020905b81548152906001019060200180831161093657829003601f168201915b5050505050905090565b6000801b81565b60008061096f610b38565b905061097c818585610be7565b600191505092915050565b7f9f2df0fed2c77648de5860a4cc508cd0818c85b8b8a1ab4ceeef8d981c8956a681565b6109b482610600565b6109bd81610cdb565b6109c78383610de1565b50505050565b6000600160008473ffffffffffffffffffffffffffffffffffffffff1673ffffffffffffffffffffffffffffffffffffffff16815260200190815260200160002060008373ffffffffffffffffffffffffffffffffffffffff1673ffffffffffffffffffffffffffffffffffffffff16815260200190815260200160002054905092915050565b7f98db8a220cd0f09badce9f22d0ba7e93edb3d404448cc3560d391ab096ad16e981565b6000600660008373ffffffffffffffffffffffffffffffffffffffff1673ffffffffffffffffffffffffffffffffffffffff16815260200190815260200160002060009054906101000a900460ff169050919050565b60007f01ffc9a7000000000000000000000000000000000000000000000000000000007bffffffffffffffffffffffffffffffffffffffffffffffffffffffff1916827bffffffffffffffffffffffffffffffffffffffffffffffffffffffff1916149050919050565b600033905090565b610b4d8383836001610fd8565b505050565b6000610b5e84846109cd565b90507fffffffffffffffffffffffffffffffffffffffffffffffffffffffffffffffff811015610be15781811015610bd1578281836040517ffb8f41b2000000000000000000000000000000000000000000000000000000008152600401610bc893929190611a1f565b60405180910390fd5b610be084848484036000610fd8565b5b50505050565b600073ffffffffffffffffffffffffffffffffffffffff168373ffffffffffffffffffffffffffffffffffffffff1603610c595760006040517f96c6fd1e000000000000000000000000000000000000000000000000000000008152600401610c509190611a56565b60405180910390fd5b600073ffffffffffffffffffffffffffffffffffffffff168273ffffffffffffffffffffffffffffffffffffffff1603610ccb5760006040517fec442f05000000000000000000000000000000000000000000000000000000008152600401610cc29190611a56565b60405180910390fd5b610cd68383836111af565b505050565b610cec81610ce7610b38565b6112d9565b50565b6000610cfb8383610860565b610dd65760016005600085815260200190815260200160002060000160008473ffffffffffffffffffffffffffffffffffffffff1673ffffffffffffffffffffffffffffffffffffffff16815260200190815260200160002060006101000a81548160ff021916908315150217905550610d73610b38565b73ffffffffffffffffffffffffffffffffffffffff168273ffffffffffffffffffffffffffffffffffffffff16847f2f8788117e7eff1d82e926ec794901d17c78024a50270940304540a733656f0d60405160405180910390a460019050610ddb565b600090505b92915050565b6000610ded8383610860565b15610ec95760006005600085815260200190815260200160002060000160008473ffffffffffffffffffffffffffffffffffffffff1673ffffffffffffffffffffffffffffffffffffffff16815260200190815260200160002060006101000a81548160ff021916908315150217905550610e66610b38565b73ffffffffffffffffffffffffffffffffffffffff168273ffffffffffffffffffffffffffffffffffffffff16847ff6391f5c32d9c69d2a47ea670b442974b53935d1edc7fd64eb21e047a839171b60405160405180910390a460019050610ece565b600090505b92915050565b600073ffffffffffffffffffffffffffffffffffffffff168273ffffffffffffffffffffffffffffffffffffffff1603610f465760006040517fec442f05000000000000000000000000000000000000000000000000000000008152600401610f3d9190611a56565b60405180910390fd5b610f52600083836111af565b5050565b600073ffffffffffffffffffffffffffffffffffffffff168273ffffffffffffffffffffffffffffffffffffffff1603610fc85760006040517f96c6fd1e000000000000000000000000000000000000000000000000000000008152600401610fbf9190611a56565b60405180910390fd5b610fd4826000836111af565b5050565b600073ffffffffffffffffffffffffffffffffffffffff168473ffffffffffffffffffffffffffffffffffffffff160361104a5760006040517fe602df050000000000000000000000000000000000000000000000000000000081526004016110419190611a56565b60405180910390fd5b600073ffffffffffffffffffffffffffffffffffffffff168373ffffffffffffffffffffffffffffffffffffffff16036110bc5760006040517f94280d620000000000000000000000000000000000000000000000000000000081526004016110b39190611a56565b60405180910390fd5b81600160008673ffffffffffffffffffffffffffffffffffffffff1673ffffffffffffffffffffffffffffffffffffffff16815260200190815260200160002060008573ffffffffffffffffffffffffffffffffffffffff1673ffffffffffffffffffffffffffffffffffffffff1681526020019081526020016000208190555080156111a9578273ffffffffffffffffffffffffffffffffffffffff168473ffffffffffffffffffffffffffffffffffffffff167f8c5be1e5ebec7d5bd14f71427d1e84f3dd0314c0f7b2291e5b200ac8c7c3b925846040516111a091906117a4565b60405180910390a35b50505050565b600660008473ffffffffffffffffffffffffffffffffffffffff1673ffffffffffffffffffffffffffffffffffffffff16815260200190815260200160002060009054906101000a900460ff161561123c576040517f08c379a000000000000000000000000000000000000000000000000000000000815260040161123390611abd565b60405180910390fd5b600660008373ffffffffffffffffffffffffffffffffffffffff1673ffffffffffffffffffffffffffffffffffffffff16815260200190815260200160002060009054906101000a900460ff16156112c9576040517f08c379a00000000000000000000000000000000000000000000000000000000081526004016112c090611b29565b60405180910390fd5b6112d483838361132a565b505050565b6112e38282610860565b6113265780826040517fe2517d3f00000000000000000000000000000000000000000000000000000000815260040161131d929190611b49565b60405180910390fd5b5050565b600073ffffffffffffffffffffffffffffffffffffffff168373ffffffffffffffffffffffffffffffffffffffff160361137c5780600260008282546113709190611ba1565b9250508190555061144f565b60008060008573ffffffffffffffffffffffffffffffffffffffff1673ffffffffffffffffffffffffffffffffffffffff16815260200190815260200160002054905081811015611408578381836040517fe450d38c0000000000000000000000000000000000000000000000000000000081526004016113ff93929190611a1f565b60405180910390fd5b8181036000808673ffffffffffffffffffffffffffffffffffffffff1673ffffffffffffffffffffffffffffffffffffffff16815260200190815260200160002081905550505b600073ffffffffffffffffffffffffffffffffffffffff168273ffffffffffffffffffffffffffffffffffffffff160361149857806002600082825403925050819055506114e5565b806000808473ffffffffffffffffffffffffffffffffffffffff1673ffffffffffffffffffffffffffffffffffffffff168152602001908152602001600020600082825401925050819055505b8173ffffffffffffffffffffffffffffffffffffffff168373ffffffffffffffffffffffffffffffffffffffff167fddf252ad1be2c89b69c2b068fc378daa952ba7f163c4a11628f55a4df523b3ef8360405161154291906117a4565b60405180910390a3505050565b600080fd5b60007fffffffff0000000000000000000000000000000000000000000000000000000082169050919050565b61158981611554565b811461159457600080fd5b50565b6000813590506115a681611580565b92915050565b6000602082840312156115c2576115c161154f565b5b60006115d084828501611597565b91505092915050565b60008115159050919050565b6115ee816115d9565b82525050565b600060208201905061160960008301846115e5565b92915050565b600081519050919050565b600082825260208201905092915050565b60005b8381101561164957808201518184015260208101905061162e565b60008484015250505050565b6000601f19601f8301169050919050565b60006116718261160f565b61167b818561161a565b935061168b81856020860161162b565b61169481611655565b840191505092915050565b600060208201905081810360008301526116b98184611666565b905092915050565b600073ffffffffffffffffffffffffffffffffffffffff82169050919050565b60006116ec826116c1565b9050919050565b6116fc816116e1565b811461170757600080fd5b50565b600081359050611719816116f3565b92915050565b6000819050919050565b6117328161171f565b811461173d57600080fd5b50565b60008135905061174f81611729565b92915050565b6000806040838503121561176c5761176b61154f565b5b600061177a8582860161170a565b925050602061178b85828601611740565b9150509250929050565b61179e8161171f565b82525050565b60006020820190506117b96000830184611795565b92915050565b6000806000606084860312156117d8576117d761154f565b5b60006117e68682870161170a565b93505060206117f78682870161170a565b925050604061180886828701611740565b9150509250925092565b6000819050919050565b61182581611812565b811461183057600080fd5b50565b6000813590506118428161181c565b92915050565b60006020828403121561185e5761185d61154f565b5b600061186c84828501611833565b91505092915050565b61187e81611812565b82525050565b60006020820190506118996000830184611875565b92915050565b600080604083850312156118b6576118b561154f565b5b60006118c485828601611833565b92505060206118d58582860161170a565b9150509250929050565b600060ff82169050919050565b6118f5816118df565b82525050565b600060208201905061191060008301846118ec565b92915050565b60006020828403121561192c5761192b61154f565b5b600061193a84828501611740565b91505092915050565b6000602082840312156119595761195861154f565b5b60006119678482850161170a565b91505092915050565b600080604083850312156119875761198661154f565b5b60006119958582860161170a565b92505060206119a68582860161170a565b9150509250929050565b7f4e487b7100000000000000000000000000000000000000000000000000000000600052602260045260246000fd5b600060028204905060018216806119f757607f821691505b602082108103611a0a57611a096119b0565b5b50919050565b611a19816116e1565b82525050565b6000606082019050611a346000830186611a10565b611a416020830185611795565b611a4e6040830184611795565b949350505050565b6000602082019050611a6b6000830184611a10565b92915050565b7f5441534b3a2073656e64657220697320626c61636b6c69737465640000000000600082015250565b6000611aa7601b8361161a565b9150611ab282611a71565b602082019050919050565b60006020820190508181036000830152611ad681611a9a565b9050919050565b7f5441534b3a20726563697069656e7420697320626c61636b6c69737465640000600082015250565b6000611b13601e8361161a565b9150611b1e82611add565b602082019050919050565b60006020820190508181036000830152611b4281611b06565b9050919050565b6000604082019050611b5e6000830185611a10565b611b6b6020830184611875565b9392505050565b7f4e487b7100000000000000000000000000000000000000000000000000000000600052601160045260246000fd5b6000611bac8261171f565b9150611bb78361171f565b9250828201905080821115611bcf57611bce611b72565b5b9291505056fea2646970667358221220c7ee249ad0232d4440c2c0dd1a926efdab76133e5fe4c4838682871c22d02f2564736f6c63430008140033",
          "opcodes": "PUSH1 0x80 PUSH1 0x40 MSTORE CALLVALUE DUP1 ISZERO PUSH3 0x11 JUMPI PUSH1 0x0 DUP1 REVERT JUMPDEST POP PUSH1 0x40 MLOAD DUP1 PUSH1 0x40 ADD PUSH1 0x40 MSTORE DUP1 PUSH1 0xA DUP2 MSTORE PUSH1 0x20 ADD PUSH32 0x5461736B20546F6B656E00000000000000000000000000000000000000000000 DUP2 MSTORE POP PUSH1 0x40 MLOAD DUP1 PUSH1 0x40 ADD PUSH1 0x40 MSTORE DUP1 PUSH1 0x4 DUP2 MSTORE PUSH1 0x20 ADD PUSH32 0x5441534B00000000000000000000000000000000000000000000000000000000 DUP2 MSTORE POP DUP2 PUSH1 0x3 SWAP1 DUP2 PUSH3 0x8F SWAP2 SWAP1 PUSH3 0x517 JUMP JUMPDEST POP DUP1 PUSH1 0x4 SWAP1 DUP2 PUSH3 0xA1 SWAP2 SWAP1 PUSH3 0x517 JUMP JUMPDEST POP POP POP PUSH3 0xB9 PUSH1 0x0 DUP1 SHL CALLER PUSH3 0x126 PUSH1 0x20 SHL PUSH1 0x20 SHR JUMP JUMPDEST POP PUSH3 0xEC PUSH32 0x9F2DF0FED2C77648DE5860A4CC508CD0818C85B8B8A1AB4CEEEF8D981C8956A6 CALLER PUSH3 0x126 PUSH1 0x20 SHL PUSH1 0x20 SHR JUMP JUMPDEST POP PUSH3 0x11F PUSH32 0x98DB8A220CD0F09BADCE9F22D0BA7E93EDB3D404448CC3560D391AB096AD16E9 CALLER PUSH3 0x126 PUSH1 0x20 SHL PUSH1 0x20 SHR JUMP JUMPDEST POP PUSH3 0x5FE JUMP JUMPDEST PUSH1 0x0 PUSH3 0x13A DUP4 DUP4 PUSH3 0x22A PUSH1 0x20 SHL PUSH1 0x20 SHR JUMP JUMPDEST PUSH3 0x21F JUMPI PUSH1 0x1 PUSH1 0x5 PUSH1 0x0 DUP6 DUP2 MSTORE PUSH1 0x20 ADD SWAP1 DUP2 MSTORE PUSH1 0x20 ADD PUSH1 0x0 KECCAK256 PUSH1 0x0 ADD PUSH1 0x0 DUP5 PUSH20 0xFFFFFFFFFFFFFFFFFFFFFFFFFFFFFFFFFFFFFFFF AND PUSH20 0xFFFFFFFFFFFFFFFFFFFFFFFFFFFFFFFFFFFFFFFF AND DUP2 MSTORE PUSH1 0x20 ADD SWAP1 DUP2 MSTORE PUSH1 0x20 ADD PUSH1 0x0 KECCAK256 PUSH1 0x0 PUSH2 0x100 EXP DUP2 SLOAD DUP2 PUSH1 0xFF MUL NOT AND SWAP1 DUP4 ISZERO ISZERO MUL OR SWAP1 SSTORE POP PUSH3 0x1BB PUSH3 0x295 PUSH1 0x20 SHL PUSH1 0x20 SHR JUMP JUMPDEST PUSH20 0xFFFFFFFFFFFFFFFFFFFFFFFFFFFFFFFFFFFFFFFF AND DUP3 PUSH20 0xFFFFFFFFFFFFFFFFFFFFFFFFFFFFFFFFFFFFFFFF AND DUP5 PUSH32 0x2F8788117E7EFF1D82E926EC794901D17C78024A50270940304540A733656F0D PUSH1 0x40 MLOAD PUSH1 0x40 MLOAD DUP1 SWAP2 SUB SWAP1 LOG4 PUSH1 0x1 SWAP1 POP PUSH3 0x224 JUMP JUMPDEST PUSH1 0x0 SWAP1 POP JUMPDEST SWAP3 SWAP2 POP POP JUMP JUMPDEST PUSH1 0x0 PUSH1 0x5 PUSH1 0x0 DUP5 DUP2 MSTORE PUSH1 0x20 ADD SWAP1 DUP2 MSTORE PUSH1 0x20 ADD PUSH1 0x0 KECCAK256 PUSH1 0x0 ADD PUSH1 0x0 DUP4 PUSH20 0xFFFFFFFFFFFFFFFFFFFFFFFFFFFFFFFFFFFFFFFF AND PUSH20 0xFFFFFFFFFFFFFFFFFFFFFFFFFFFFFFFFFFFFFFFF AND DUP2 MSTORE PUSH1 0x20 ADD SWAP1 DUP2 MSTORE PUSH1 0x20 ADD PUSH1 0x0 KECCAK256 PUSH1 0x0 SWAP1 SLOAD SWAP1 PUSH2 0x100 EXP SWAP1 DIV PUSH1 0xFF AND SWAP1 POP SWAP3 SWAP2 POP POP JUMP JUMPDEST PUSH1 0x0 CALLER SWAP1 POP SWAP1 JUMP JUMPDEST PUSH1 0x0 DUP2 MLOAD SWAP1 POP SWAP2 SWAP1 POP JUMP JUMPDEST PUSH32 0x4E487B7100000000000000000000000000000000000000000000000000000000 PUSH1 0x0 MSTORE PUSH1 0x41 PUSH1 0x4 MSTORE PUSH1 0x24 PUSH1 0x0 REVERT JUMPDEST PUSH32 0x4E487B7100000000000000000000000000000000000000000000000000000000 PUSH1 0x0 MSTORE PUSH1 0x22 PUSH1 0x4 MSTORE PUSH1 0x24 PUSH1 0x0 REVERT JUMPDEST PUSH1 0x0 PUSH1 0x2 DUP3 DIV SWAP1 POP PUSH1 0x1 DUP3 AND DUP1 PUSH3 0x31F JUMPI PUSH1 0x7F DUP3 AND SWAP2 POP JUMPDEST PUSH1 0x20 DUP3 LT DUP2 SUB PUSH3 0x335 JUMPI PUSH3 0x334 PUSH3 0x2D7 JUMP JUMPDEST JUMPDEST POP SWAP2 SWAP1 POP JUMP JUMPDEST PUSH1 0x0 DUP2 SWAP1 POP DUP2 PUSH1 0x0 MSTORE PUSH1 0x20 PUSH1 0x0 KECCAK256 SWAP1 POP SWAP2 SWAP1 POP JUMP JUMPDEST PUSH1 0x0 PUSH1 0x20 PUSH1 0x1F DUP4 ADD DIV SWAP1 POP SWAP2 SWAP1 POP JUMP JUMPDEST PUSH1 0x0 DUP3 DUP3 SHL SWAP1 POP SWAP3 SWAP2 POP POP JUMP JUMPDEST PUSH1 0x0 PUSH1 0x8 DUP4 MUL PUSH3 0x39F PUSH32 0xFFFFFFFFFFFFFFFFFFFFFFFFFFFFFFFFFFFFFFFFFFFFFFFFFFFFFFFFFFFFFFFF DUP3 PUSH3 0x360 JUMP JUMPDEST PUSH3 0x3AB DUP7 DUP4 PUSH3 0x360 JUMP JUMPDEST SWAP6 POP DUP1 NOT DUP5 AND SWAP4 POP DUP1 DUP7 AND DUP5 OR SWAP3 POP POP POP SWAP4 SWAP3 POP POP POP JUMP JUMPDEST PUSH1 0x0 DUP2 SWAP1 POP SWAP2 SWAP1 POP JUMP JUMPDEST PUSH1 0x0 DUP2 SWAP1 POP SWAP2 SWAP1 POP JUMP JUMPDEST PUSH1 0x0 PUSH3 0x3F8 PUSH3 0x3F2 PUSH3 0x3EC DUP5 PUSH3 0x3C3 JUMP JUMPDEST PUSH3 0x3CD JUMP JUMPDEST PUSH3 0x3C3 JUMP JUMPDEST SWAP1 POP SWAP2 SWAP1 POP JUMP JUMPDEST PUSH1 0x0 DUP2 SWAP1 POP SWAP2 SWAP1 POP JUMP JUMPDEST PUSH3 0x414 DUP4 PUSH3 0x3D7 JUMP JUMPDEST PUSH3 0x42C PUSH3 0x423 DUP3 PUSH3 0x3FF JUMP JUMPDEST DUP5 DUP5 SLOAD PUSH3 0x36D JUMP JUMPDEST DUP3 SSTORE POP POP POP POP JUMP JUMPDEST PUSH1 0x0 SWAP1 JUMP JUMPDEST PUSH3 0x443 PUSH3 0x434 JUMP JUMPDEST PUSH3 0x450 DUP2 DUP5 DUP5 PUSH3 0x409 JUMP JUMPDEST POP POP POP JUMP JUMPDEST JUMPDEST DUP2 DUP2 LT ISZERO PUSH3 0x478 JUMPI PUSH3 0x46C PUSH1 0x0 DUP3 PUSH3 0x439 JUMP JUMPDEST PUSH1 0x1 DUP2 ADD SWAP1 POP PUSH3 0x456 JUMP JUMPDEST POP POP JUMP JUMPDEST PUSH1 0x1F DUP3 GT ISZERO PUSH3 0x4C7 JUMPI PUSH3 0x491 DUP2 PUSH3 0x33B JUMP JUMPDEST PUSH3 0x49C DUP5 PUSH3 0x350 JUMP JUMPDEST DUP2 ADD PUSH1 0x20 DUP6 LT ISZERO PUSH3 0x4AC JUMPI DUP2 SWAP1 POP JUMPDEST PUSH3 0x4C4 PUSH3 0x4BB DUP6 PUSH3 0x350 JUMP JUMPDEST DUP4 ADD DUP3 PUSH3 0x455 JUMP JUMPDEST POP POP JUMPDEST POP POP POP JUMP JUMPDEST PUSH1 0x0 DUP3 DUP3 SHR SWAP1 POP SWAP3 SWAP2 POP POP JUMP JUMPDEST PUSH1 0x0 PUSH3 0x4EC PUSH1 0x0 NOT DUP5 PUSH1 0x8 MUL PUSH3 0x4CC JUMP JUMPDEST NOT DUP1 DUP4 AND SWAP2 POP POP SWAP3 SWAP2 POP POP JUMP JUMPDEST PUSH1 0x0 PUSH3 0x507 DUP4 DUP4 PUSH3 0x4D9 JUMP JUMPDEST SWAP2 POP DUP3 PUSH1 0x2 MUL DUP3 OR SWAP1 POP SWAP3 SWAP2 POP POP JUMP JUMPDEST PUSH3 0x522 DUP3 PUSH3 0x29D JUMP JUMPDEST PUSH8 0xFFFFFFFFFFFFFFFF DUP2 GT ISZERO PUSH3 0x53E JUMPI PUSH3 0x53D PUSH3 0x2A8 JUMP JUMPDEST JUMPDEST PUSH3 0x54A DUP3 SLOAD PUSH3 0x306 JUMP JUMPDEST PUSH3 0x557 DUP3 DUP3 DUP6 PUSH3 0x47C JUMP JUMPDEST PUSH1 0x0 PUSH1 0x20 SWAP1 POP PUSH1 0x1F DUP4 GT PUSH1 0x1 DUP2 EQ PUSH3 0x58F JUMPI PUSH1 0x0 DUP5 ISZERO PUSH3 0x57A JUMPI DUP3 DUP8 ADD MLOAD SWAP1 POP JUMPDEST PUSH3 0x586 DUP6 DUP3 PUSH3 0x4F9 JUMP JUMPDEST DUP7 SSTORE POP PUSH3 0x5F6 JUMP JUMPDEST PUSH1 0x1F NOT DUP5 AND PUSH3 0x59F DUP7 PUSH3 0x33B JUMP JUMPDEST PUSH1 0x0 JUMPDEST DUP3 DUP2 LT ISZERO PUSH3 0x5C9 JUMPI DUP5 DUP10 ADD MLOAD DUP3 SSTORE PUSH1 0x1 DUP3 ADD SWAP2 POP PUSH1 0x20 DUP6 ADD SWAP5 POP PUSH1 0x20 DUP2 ADD SWAP1 POP PUSH3 0x5A2 JUMP JUMPDEST DUP7 DUP4 LT ISZERO PUSH3 0x5E9 JUMPI DUP5 DUP10 ADD MLOAD PUSH3 0x5E5 PUSH1 0x1F DUP10 AND DUP3 PUSH3 0x4D9 JUMP JUMPDEST DUP4 SSTORE POP JUMPDEST PUSH1 0x1 PUSH1 0x2 DUP9 MUL ADD DUP9 SSTORE POP POP POP JUMPDEST POP POP POP POP POP POP JUMP JUMPDEST PUSH2 0x1C0B DUP1 PUSH3 0x60E PUSH1 0x0 CODECOPY PUSH1 0x0 RETURN INVALID PUSH1 0x80 PUSH1 0x40 MSTORE CALLVALUE DUP1 ISZERO PUSH2 0x10 JUMPI PUSH1 0x0 DUP1 REVERT JUMPDEST POP PUSH1 0x4 CALLDATASIZE LT PUSH2 0x14D JUMPI PUSH1 0x0 CALLDATALOAD PUSH1 0xE0 SHR DUP1 PUSH4 0x44337EA1 GT PUSH2 0xC3 JUMPI DUP1 PUSH4 0xA9059CBB GT PUSH2 0x7C JUMPI DUP1 PUSH4 0xA9059CBB EQ PUSH2 0x3B0 JUMPI DUP1 PUSH4 0xD5391393 EQ PUSH2 0x3E0 JUMPI DUP1 PUSH4 0xD547741F EQ PUSH2 0x3FE JUMPI DUP1 PUSH4 0xDD62ED3E EQ PUSH2 0x41A JUMPI DUP1 PUSH4 0xF515E6F2 EQ PUSH2 0x44A JUMPI DUP1 PUSH4 0xFE575A87 EQ PUSH2 0x468 JUMPI PUSH2 0x14D JUMP JUMPDEST DUP1 PUSH4 0x44337EA1 EQ PUSH2 0x2DC JUMPI DUP1 PUSH4 0x537DF3B6 EQ PUSH2 0x2F8 JUMPI DUP1 PUSH4 0x70A08231 EQ PUSH2 0x314 JUMPI DUP1 PUSH4 0x91D14854 EQ PUSH2 0x344 JUMPI DUP1 PUSH4 0x95D89B41 EQ PUSH2 0x374 JUMPI DUP1 PUSH4 0xA217FDDF EQ PUSH2 0x392 JUMPI PUSH2 0x14D JUMP JUMPDEST DUP1 PUSH4 0x248A9CA3 GT PUSH2 0x115 JUMPI DUP1 PUSH4 0x248A9CA3 EQ PUSH2 0x21E JUMPI DUP1 PUSH4 0x2F2FF15D EQ PUSH2 0x24E JUMPI DUP1 PUSH4 0x313CE567 EQ PUSH2 0x26A JUMPI DUP1 PUSH4 0x36568ABE EQ PUSH2 0x288 JUMPI DUP1 PUSH4 0x40C10F19 EQ PUSH2 0x2A4 JUMPI DUP1 PUSH4 0x42966C68 EQ PUSH2 0x2C0 JUMPI PUSH2 0x14D JUMP JUMPDEST DUP1 PUSH4 0x1FFC9A7 EQ PUSH2 0x152 JUMPI DUP1 PUSH4 0x6FDDE03 EQ PUSH2 0x182 JUMPI DUP1 PUSH4 0x95EA7B3 EQ PUSH2 0x1A0 JUMPI DUP1 PUSH4 0x18160DDD EQ PUSH2 0x1D0 JUMPI DUP1 PUSH4 0x23B872DD EQ PUSH2 0x1EE JUMPI JUMPDEST PUSH1 0x0 DUP1 REVERT JUMPDEST PUSH2 0x16C PUSH1 0x4 DUP1 CALLDATASIZE SUB DUP2 ADD SWAP1 PUSH2 0x167 SWAP2 SWAP1 PUSH2 0x15AC JUMP JUMPDEST PUSH2 0x498 JUMP JUMPDEST PUSH1 0x40 MLOAD PUSH2 0x179 SWAP2 SWAP1 PUSH2 0x15F4 JUMP JUMPDEST PUSH1 0x40 MLOAD DUP1 SWAP2 SUB SWAP1 RETURN JUMPDEST PUSH2 0x18A PUSH2 0x512 JUMP JUMPDEST PUSH1 0x40 MLOAD PUSH2 0x197 SWAP2 SWAP1 PUSH2 0x169F JUMP JUMPDEST PUSH1 0x40 MLOAD DUP1 SWAP2 SUB SWAP1 RETURN JUMPDEST PUSH2 0x1BA PUSH1 0x4 DUP1 CALLDATASIZE SUB DUP2 ADD SWAP1 PUSH2 0x1B5 SWAP2 SWAP1 PUSH2 0x1755 JUMP JUMPDEST PUSH2 0x5A4 JUMP JUMPDEST PUSH1 0x40 MLOAD PUSH2 0x1C7 SWAP2 SWAP1 PUSH2 0x15F4 JUMP JUMPDEST PUSH1 0x40 MLOAD DUP1 SWAP2 SUB SWAP1 RETURN JUMPDEST PUSH2 0x1D8 PUSH2 0x5C7 JUMP JUMPDEST PUSH1 0x40 MLOAD PUSH2 0x1E5 SWAP2 SWAP1 PUSH2 0x17A4 JUMP JUMPDEST PUSH1 0x40 MLOAD DUP1 SWAP2 SUB SWAP1 RETURN JUMPDEST PUSH2 0x208 PUSH1 0x4 DUP1 CALLDATASIZE SUB DUP2 ADD SWAP1 PUSH2 0x203 SWAP2 SWAP1 PUSH2 0x17BF JUMP JUMPDEST PUSH2 0x5D1 JUMP JUMPDEST PUSH1 0x40 MLOAD PUSH2 0x215 SWAP2 SWAP1 PUSH2 0x15F4 JUMP JUMPDEST PUSH1 0x40 MLOAD DUP1 SWAP2 SUB SWAP1 RETURN JUMPDEST PUSH2 0x238 PUSH1 0x4 DUP1 CALLDATASIZE SUB DUP2 ADD SWAP1 PUSH2 0x233 SWAP2 SWAP1 PUSH2 0x1848 JUMP JUMPDEST PUSH2 0x600 JUMP JUMPDEST PUSH1 0x40 MLOAD PUSH2 0x245 SWAP2 SWAP1 PUSH2 0x1884 JUMP JUMPDEST PUSH1 0x40 MLOAD DUP1 SWAP2 SUB SWAP1 RETURN JUMPDEST PUSH2 0x268 PUSH1 0x4 DUP1 CALLDATASIZE SUB DUP2 ADD SWAP1 PUSH2 0x263 SWAP2 SWAP1 PUSH2 0x189F JUMP JUMPDEST PUSH2 0x620 JUMP JUMPDEST STOP JUMPDEST PUSH2 0x272 PUSH2 0x642 JUMP JUMPDEST PUSH1 0x40 MLOAD PUSH2 0x27F SWAP2 SWAP1 PUSH2 0x18FB JUMP JUMPDEST PUSH1 0x40 MLOAD DUP1 SWAP2 SUB SWAP1 RETURN JUMPDEST PUSH2 0x2A2 PUSH1 0x4 DUP1 CALLDATASIZE SUB DUP2 ADD SWAP1 PUSH2 0x29D SWAP2 SWAP1 PUSH2 0x189F JUMP JUMPDEST PUSH2 0x64B JUMP JUMPDEST STOP JUMPDEST PUSH2 0x2BE PUSH1 0x4 DUP1 CALLDATASIZE SUB DUP2 ADD SWAP1 PUSH2 0x2B9 SWAP2 SWAP1 PUSH2 0x1755 JUMP JUMPDEST PUSH2 0x6C6 JUMP JUMPDEST STOP JUMPDEST PUSH2 0x2DA PUSH1 0x4 DUP1 CALLDATASIZE SUB DUP2 ADD SWAP1 PUSH2 0x2D5 SWAP2 SWAP1 PUSH2 0x1916 JUMP JUMPDEST PUSH2 0x6FF JUMP JUMPDEST STOP JUMPDEST PUSH2 0x2F6 PUSH1 0x4 DUP1 CALLDATASIZE SUB DUP2 ADD SWAP1 PUSH2 0x2F1 SWAP2 SWAP1 PUSH2 0x1943 JUMP JUMPDEST PUSH2 0x70C JUMP JUMPDEST STOP JUMPDEST PUSH2 0x312 PUSH1 0x4 DUP1 CALLDATASIZE SUB DUP2 ADD SWAP1 PUSH2 0x30D SWAP2 SWAP1 PUSH2 0x1943 JUMP JUMPDEST PUSH2 0x792 JUMP JUMPDEST STOP JUMPDEST PUSH2 0x32E PUSH1 0x4 DUP1 CALLDATASIZE SUB DUP2 ADD SWAP1 PUSH2 0x329 SWAP2 SWAP1 PUSH2 0x1943 JUMP JUMPDEST PUSH2 0x818 JUMP JUMPDEST PUSH1 0x40 MLOAD PUSH2 0x33B SWAP2 SWAP1 PUSH2 0x17A4 JUMP JUMPDEST PUSH1 0x40 MLOAD DUP1 SWAP2 SUB SWAP1 RETURN JUMPDEST PUSH2 0x35E PUSH1 0x4 DUP1 CALLDATASIZE SUB DUP2 ADD SWAP1 PUSH2 0x359 SWAP2 SWAP1 PUSH2 0x189F JUMP JUMPDEST PUSH2 0x860 JUMP JUMPDEST PUSH1 0x40 MLOAD PUSH2 0x36B SWAP2 SWAP1 PUSH2 0x15F4 JUMP JUMPDEST PUSH1 0x40 MLOAD DUP1 SWAP2 SUB SWAP1 RETURN JUMPDEST PUSH2 0x37C PUSH2 0x8CB JUMP JUMPDEST PUSH1 0x40 MLOAD PUSH2 0x389 SWAP2 SWAP1 PUSH2 0x169F JUMP JUMPDEST PUSH1 0x40 MLOAD DUP1 SWAP2 SUB SWAP1 RETURN JUMPDEST PUSH2 0x39A PUSH2 0x95D JUMP JUMPDEST PUSH1 0x40 MLOAD PUSH2 0x3A7 SWAP2 SWAP1 PUSH2 0x1884 JUMP JUMPDEST PUSH1 0x40 MLOAD DUP1 SWAP2 SUB SWAP1 RETURN JUMPDEST PUSH2 0x3CA PUSH1 0x4 DUP1 CALLDATASIZE SUB DUP2 ADD SWAP1 PUSH2 0x3C5 SWAP2 SWAP1 PUSH2 0x1755 JUMP JUMPDEST PUSH2 0x964 JUMP JUMPDEST PUSH1 0x40 MLOAD PUSH2 0x3D7 SWAP2 SWAP1 PUSH2 0x15F4 JUMP JUMPDEST PUSH1 0x40 MLOAD DUP1 SWAP2 SUB SWAP1 RETURN JUMPDEST PUSH2 0x3E8 PUSH2 0x987 JUMP JUMPDEST PUSH1 0x40 MLOAD PUSH2 0x3F5 SWAP2 SWAP1 PUSH2 0x1884 JUMP JUMPDEST PUSH1 0x40 MLOAD DUP1 SWAP2 SUB SWAP1 RETURN JUMPDEST PUSH2 0x418 PUSH1 0x4 DUP1 CALLDATASIZE SUB DUP2 ADD SWAP1 PUSH2 0x413 SWAP2 SWAP1 PUSH2 0x189F JUMP JUMPDEST PUSH2 0x9AB JUMP JUMPDEST STOP JUMPDEST PUSH2 0x434 PUSH1 0x4 DUP1 CALLDATASIZE SUB DUP2 ADD SWAP1 PUSH2 0x42F SWAP2 SWAP1 PUSH2 0x1970 JUMP JUMPDEST PUSH2 0x9CD JUMP JUMPDEST PUSH1 0x40 MLOAD PUSH2 0x441 SWAP2 SWAP1 PUSH2 0x17A4 JUMP JUMPDEST PUSH1 0x40 MLOAD DUP1 SWAP2 SUB SWAP1 RETURN JUMPDEST PUSH2 0x452 PUSH2 0xA54 JUMP JUMPDEST PUSH1 0x40 MLOAD PUSH2 0x45F SWAP2 SWAP1 PUSH2 0x1884 JUMP JUMPDEST PUSH1 0x40 MLOAD DUP1 SWAP2 SUB SWAP1 RETURN JUMPDEST PUSH2 0x482 PUSH1 0x4 DUP1 CALLDATASIZE SUB DUP2 ADD SWAP1 PUSH2 0x47D SWAP2 SWAP1 PUSH2 0x1943 JUMP JUMPDEST PUSH2 0xA78 JUMP JUMPDEST PUSH1 0x40 MLOAD PUSH2 0x48F SWAP2 SWAP1 PUSH2 0x15F4 JUMP JUMPDEST PUSH1 0x40 MLOAD DUP1 SWAP2 SUB SWAP1 RETURN JUMPDEST PUSH1 0x0 PUSH32 0x7965DB0B00000000000000000000000000000000000000000000000000000000 PUSH28 0xFFFFFFFFFFFFFFFFFFFFFFFFFFFFFFFFFFFFFFFFFFFFFFFFFFFFFFFF NOT AND DUP3 PUSH28 0xFFFFFFFFFFFFFFFFFFFFFFFFFFFFFFFFFFFFFFFFFFFFFFFFFFFFFFFF NOT AND EQ DUP1 PUSH2 0x50B JUMPI POP PUSH2 0x50A DUP3 PUSH2 0xACE JUMP JUMPDEST JUMPDEST SWAP1 POP SWAP2 SWAP1 POP JUMP JUMPDEST PUSH1 0x60 PUSH1 0x3 DUP1 SLOAD PUSH2 0x521 SWAP1 PUSH2 0x19DF JUMP JUMPDEST DUP1 PUSH1 0x1F ADD PUSH1 0x20 DUP1 SWAP2 DIV MUL PUSH1 0x20 ADD PUSH1 0x40 MLOAD SWAP1 DUP2 ADD PUSH1 0x40 MSTORE DUP1 SWAP3 SWAP2 SWAP1 DUP2 DUP2 MSTORE PUSH1 0x20 ADD DUP3 DUP1 SLOAD PUSH2 0x54D SWAP1 PUSH2 0x19DF JUMP JUMPDEST DUP1 ISZERO PUSH2 0x59A JUMPI DUP1 PUSH1 0x1F LT PUSH2 0x56F JUMPI PUSH2 0x100 DUP1 DUP4 SLOAD DIV MUL DUP4 MSTORE SWAP2 PUSH1 0x20 ADD SWAP2 PUSH2 0x59A JUMP JUMPDEST DUP3 ADD SWAP2 SWAP1 PUSH1 0x0 MSTORE PUSH1 0x20 PUSH1 0x0 KECCAK256 SWAP1 JUMPDEST DUP2 SLOAD DUP2 MSTORE SWAP1 PUSH1 0x1 ADD SWAP1 PUSH1 0x20 ADD DUP1 DUP4 GT PUSH2 0x57D JUMPI DUP3 SWAP1 SUB PUSH1 0x1F AND DUP3 ADD SWAP2 JUMPDEST POP POP POP POP POP SWAP1 POP SWAP1 JUMP JUMPDEST PUSH1 0x0 DUP1 PUSH2 0x5AF PUSH2 0xB38 JUMP JUMPDEST SWAP1 POP PUSH2 0x5BC DUP2 DUP6 DUP6 PUSH2 0xB40 JUMP JUMPDEST PUSH1 0x1 SWAP2 POP POP SWAP3 SWAP2 POP POP JUMP JUMPDEST PUSH1 0x0 PUSH1 0x2 SLOAD SWAP1 POP SWAP1 JUMP JUMPDEST PUSH1 0x0 DUP1 PUSH2 0x5DC PUSH2 0xB38 JUMP JUMPDEST SWAP1 POP PUSH2 0x5E9 DUP6 DUP3 DUP6 PUSH2 0xB52 JUMP JUMPDEST PUSH2 0x5F4 DUP6 DUP6 DUP6 PUSH2 0xBE7 JUMP JUMPDEST PUSH1 0x1 SWAP2 POP POP SWAP4 SWAP3 POP POP POP JUMP JUMPDEST PUSH1 0x0 PUSH1 0x5 PUSH1 0x0 DUP4 DUP2 MSTORE PUSH1 0x20 ADD SWAP1 DUP2 MSTORE PUSH1 0x20 ADD PUSH1 0x0 KECCAK256 PUSH1 0x1 ADD SLOAD SWAP1 POP SWAP2 SWAP1 POP JUMP JUMPDEST PUSH2 0x629 DUP3 PUSH2 0x600 JUMP JUMPDEST PUSH2 0x632 DUP2 PUSH2 0xCDB JUMP JUMPDEST PUSH2 0x63C DUP4 DUP4 PUSH2 0xCEF JUMP JUMPDEST POP POP POP POP JUMP JUMPDEST PUSH1 0x0 PUSH1 0x12 SWAP1 POP SWAP1 JUMP JUMPDEST PUSH2 0x653 PUSH2 0xB38 JUMP JUMPDEST PUSH20 0xFFFFFFFFFFFFFFFFFFFFFFFFFFFFFFFFFFFFFFFF AND DUP2 PUSH20 0xFFFFFFFFFFFFFFFFFFFFFFFFFFFFFFFFFFFFFFFF AND EQ PUSH2 0x6B7 JUMPI PUSH1 0x40 MLOAD PUSH32 0x6697B23200000000000000000000000000000000000000000000000000000000 DUP2 MSTORE PUSH1 0x4 ADD PUSH1 0x40 MLOAD DUP1 SWAP2 SUB SWAP1 REVERT JUMPDEST PUSH2 0x6C1 DUP3 DUP3 PUSH2 0xDE1 JUMP JUMPDEST POP POP POP JUMP JUMPDEST PUSH32 0x9F2DF0FED2C77648DE5860A4CC508CD0818C85B8B8A1AB4CEEEF8D981C8956A6 PUSH2 0x6F0 DUP2 PUSH2 0xCDB JUMP JUMPDEST PUSH2 0x6FA DUP4 DUP4 PUSH2 0xED4 JUMP JUMPDEST POP POP POP JUMP JUMPDEST PUSH2 0x709 CALLER DUP3 PUSH2 0xF56 JUMP JUMPDEST POP JUMP JUMPDEST PUSH32 0x98DB8A220CD0F09BADCE9F22D0BA7E93EDB3D404448CC3560D391AB096AD16E9 PUSH2 0x736 DUP2 PUSH2 0xCDB JUMP JUMPDEST PUSH1 0x1 PUSH1 0x6 PUSH1 0x0 DUP5 PUSH20 0xFFFFFFFFFFFFFFFFFFFFFFFFFFFFFFFFFFFFFFFF AND PUSH20 0xFFFFFFFFFFFFFFFFFFFFFFFFFFFFFFFFFFFFFFFF AND DUP2 MSTORE PUSH1 0x20 ADD SWAP1 DUP2 MSTORE PUSH1 0x20 ADD PUSH1 0x0 KECCAK256 PUSH1 0x0 PUSH2 0x100 EXP DUP2 SLOAD DUP2 PUSH1 0xFF MUL NOT AND SWAP1 DUP4 ISZERO ISZERO MUL OR SWAP1 SSTORE POP POP POP JUMP JUMPDEST PUSH32 0x98DB8A220CD0F09BADCE9F22D0BA7E93EDB3D404448CC3560D391AB096AD16E9 PUSH2 0x7BC DUP2 PUSH2 0xCDB JUMP JUMPDEST PUSH1 0x0 PUSH1 0x6 PUSH1 0x0 DUP5 PUSH20 0xFFFFFFFFFFFFFFFFFFFFFFFFFFFFFFFFFFFFFFFF AND PUSH20 0xFFFFFFFFFFFFFFFFFFFFFFFFFFFFFFFFFFFFFFFF AND DUP2 MSTORE PUSH1 0x20 ADD SWAP1 DUP2 MSTORE PUSH1 0x20 ADD PUSH1 0x0 KECCAK256 PUSH1 0x0 PUSH2 0x100 EXP DUP2 SLOAD DUP2 PUSH1 0xFF MUL NOT AND SWAP1 DUP4 ISZERO ISZERO MUL OR SWAP1 SSTORE POP POP POP JUMP JUMPDEST PUSH1 0x0 DUP1 PUSH1 0x0 DUP4 PUSH20 0xFFFFFFFFFFFFFFFFFFFFFFFFFFFFFFFFFFFFFFFF AND PUSH20 0xFFFFFFFFFFFFFFFFFFFFFFFFFFFFFFFFFFFFFFFF AND DUP2 MSTORE PUSH1 0x20 ADD SWAP1 DUP2 MSTORE PUSH1 0x20 ADD PUSH1 0x0 KECCAK256 SLOAD SWAP1 POP SWAP2 SWAP1 POP JUMP JUMPDEST PUSH1 0x0 PUSH1 0x5 PUSH1 0x0 DUP5 DUP2 MSTORE PUSH1 0x20 ADD SWAP1 DUP2 MSTORE PUSH1 0x20 ADD PUSH1 0x0 KECCAK256 PUSH1 0x0 ADD PUSH1 0x0 DUP4 PUSH20 0xFFFFFFFFFFFFFFFFFFFFFFFFFFFFFFFFFFFFFFFF AND PUSH20 0xFFFFFFFFFFFFFFFFFFFFFFFFFFFFFFFFFFFFFFFF AND DUP2 MSTORE PUSH1 0x20 ADD SWAP1 DUP2 MSTORE PUSH1 0x20 ADD PUSH1 0x0 KECCAK256 PUSH1 0x0 SWAP1 SLOAD SWAP1 PUSH2 0x100 EXP SWAP1 DIV PUSH1 0xFF AND SWAP1 POP SWAP3 SWAP2 POP POP JUMP JUMPDEST PUSH1 0x60 PUSH1 0x4 DUP1 SLOAD PUSH2 0x8DA SWAP1 PUSH2 0x19DF JUMP JUMPDEST DUP1 PUSH1 0x1F ADD PUSH1 0x20 DUP1 SWAP2 DIV MUL PUSH1 0x20 ADD PUSH1 0x40 MLOAD SWAP1 DUP2 ADD PUSH1 0x40 MSTORE DUP1 SWAP3 SWAP2 SWAP1 DUP2 DUP2 MSTORE PUSH1 0x20 ADD DUP3 DUP1 SLOAD PUSH2 0x906 SWAP1 PUSH2 0x19DF JUMP JUMPDEST DUP1 ISZERO PUSH2 0x953 JUMPI DUP1 PUSH1 0x1F LT PUSH2 0x928 JUMPI PUSH2 0x100 DUP1 DUP4 SLOAD DIV MUL DUP4 MSTORE SWAP2 PUSH1 0x20 ADD SWAP2 PUSH2 0x953 JUMP JUMPDEST DUP3 ADD SWAP2 SWAP1 PUSH1 0x0 MSTORE PUSH1 0x20 PUSH1 0x0 KECCAK256 SWAP1 JUMPDEST DUP2 SLOAD DUP2 MSTORE SWAP1 PUSH1 0x1 ADD SWAP1 PUSH1 0x20 ADD DUP1 DUP4 GT PUSH2 0x936 JUMPI DUP3 SWAP1 SUB PUSH1 0x1F AND DUP3 ADD SWAP2 JUMPDEST POP POP POP POP POP SWAP1 POP SWAP1 JUMP JUMPDEST PUSH1 0x0 DUP1 SHL DUP2 JUMP JUMPDEST PUSH1 0x0 DUP1 PUSH2 0x96F PUSH2 0xB38 JUMP JUMPDEST SWAP1 POP PUSH2 0x97C DUP2 DUP6 DUP6 PUSH2 0xBE7 JUMP JUMPDEST PUSH1 0x1 SWAP2 POP POP SWAP3 SWAP2 POP POP JUMP JUMPDEST PUSH32 0x9F2DF0FED2C77648DE5860A4CC508CD0818C85B8B8A1AB4CEEEF8D981C8956A6 DUP2 JUMP JUMPDEST PUSH2 0x9B4 DUP3 PUSH2 0x600 JUMP JUMPDEST PUSH2 0x9BD DUP2 PUSH2 0xCDB JUMP JUMPDEST PUSH2 0x9C7 DUP4 DUP4 PUSH2 0xDE1 JUMP JUMPDEST POP POP POP POP JUMP JUMPDEST PUSH1 0x0 PUSH1 0x1 PUSH1 0x0 DUP5 PUSH20 0xFFFFFFFFFFFFFFFFFFFFFFFFFFFFFFFFFFFFFFFF AND PUSH20 0xFFFFFFFFFFFFFFFFFFFFFFFFFFFFFFFFFFFFFFFF AND DUP2 MSTORE PUSH1 0x20 ADD SWAP1 DUP2 MSTORE PUSH1 0x20 ADD PUSH1 0x0 KECCAK256 PUSH1 0x0 DUP4 PUSH20 0xFFFFFFFFFFFFFFFFFFFFFFFFFFFFFFFFFFFFFFFF AND PUSH20 0xFFFFFFFFFFFFFFFFFFFFFFFFFFFFFFFFFFFFFFFF AND DUP2 MSTORE PUSH1 0x20 ADD SWAP1 DUP2 MSTORE PUSH1 0x20 ADD PUSH1 0x0 KECCAK256 SLOAD SWAP1 POP SWAP3 SWAP2 POP POP JUMP JUMPDEST PUSH32 0x98DB8A220CD0F09BADCE9F22D0BA7E93EDB3D404448CC3560D391AB096AD16E9 DUP2 JUMP JUMPDEST PUSH1 0x0 PUSH1 0x6 PUSH1 0x0 DUP4 PUSH20 0xFFFFFFFFFFFFFFFFFFFFFFFFFFFFFFFFFFFFFFFF AND PUSH20 0xFFFFFFFFFFFFFFFFFFFFFFFFFFFFFFFFFFFFFFFF AND DUP2 MSTORE PUSH1 0x20 ADD SWAP1 DUP2 MSTORE PUSH1 0x20 ADD PUSH1 0x0 KECCAK256 PUSH1 0x0 SWAP1 SLOAD SWAP1 PUSH2 0x100 EXP SWAP1 DIV PUSH1 0xFF AND SWAP1 POP SWAP2 SWAP1 POP JUMP JUMPDEST PUSH1 0x0 PUSH32 0x1FFC9A700000000000000000000000000000000000000000000000000000000 PUSH28 0xFFFFFFFFFFFFFFFFFFFFFFFFFFFFFFFFFFFFFFFFFFFFFFFFFFFFFFFF NOT AND DUP3 PUSH28 0xFFFFFFFFFFFFFFFFFFFFFFFFFFFFFFFFFFFFFFFFFFFFFFFFFFFFFFFF NOT AND EQ SWAP1 POP SWAP2 SWAP1 POP JUMP JUMPDEST PUSH1 0x0 CALLER SWAP1 POP SWAP1 JUMP JUMPDEST PUSH2 0xB4D DUP4 DUP4 DUP4 PUSH1 0x1 PUSH2 0xFD8 JUMP JUMPDEST POP POP POP JUMP JUMPDEST PUSH1 0x0 PUSH2 0xB5E DUP5 DUP5 PUSH2 0x9CD JUMP JUMPDEST SWAP1 POP PUSH32 0xFFFFFFFFFFFFFFFFFFFFFFFFFFFFFFFFFFFFFFFFFFFFFFFFFFFFFFFFFFFFFFFF DUP2 LT ISZERO PUSH2 0xBE1 JUMPI DUP2 DUP2 LT ISZERO PUSH2 0xBD1 JUMPI DUP3 DUP2 DUP4 PUSH1 0x40 MLOAD PUSH32 0xFB8F41B200000000000000000000000000000000000000000000000000000000 DUP2 MSTORE PUSH1 0x4 ADD PUSH2 0xBC8 SWAP4 SWAP3 SWAP2 SWAP1 PUSH2 0x1A1F JUMP JUMPDEST PUSH1 0x40 MLOAD DUP1 SWAP2 SUB SWAP1 REVERT JUMPDEST PUSH2 0xBE0 DUP5 DUP5 DUP5 DUP5 SUB PUSH1 0x0 PUSH2 0xFD8 JUMP JUMPDEST JUMPDEST POP POP POP POP JUMP JUMPDEST PUSH1 0x0 PUSH20 0xFFFFFFFFFFFFFFFFFFFFFFFFFFFFFFFFFFFFFFFF AND DUP4 PUSH20 0xFFFFFFFFFFFFFFFFFFFFFFFFFFFFFFFFFFFFFFFF AND SUB PUSH2 0xC59 JUMPI PUSH1 0x0 PUSH1 0x40 MLOAD PUSH32 0x96C6FD1E00000000000000000000000000000000000000000000000000000000 DUP2 MSTORE PUSH1 0x4 ADD PUSH2 0xC50 SWAP2 SWAP1 PUSH2 0x1A56 JUMP JUMPDEST PUSH1 0x40 MLOAD DUP1 SWAP2 SUB SWAP1 REVERT JUMPDEST PUSH1 0x0 PUSH20 0xFFFFFFFFFFFFFFFFFFFFFFFFFFFFFFFFFFFFFFFF AND DUP3 PUSH20 0xFFFFFFFFFFFFFFFFFFFFFFFFFFFFFFFFFFFFFFFF AND SUB PUSH2 0xCCB JUMPI PUSH1 0x0 PUSH1 0x40 MLOAD PUSH32 0xEC442F0500000000000000000000000000000000000000000000000000000000 DUP2 MSTORE PUSH1 0x4 ADD PUSH2 0xCC2 SWAP2 SWAP1 PUSH2 0x1A56 JUMP JUMPDEST PUSH1 0x40 MLOAD DUP1 SWAP2 SUB SWAP1 REVERT JUMPDEST PUSH2 0xCD6 DUP4 DUP4 DUP4 PUSH2 0x11AF JUMP JUMPDEST POP POP POP JUMP JUMPDEST PUSH2 0xCEC DUP2 PUSH2 0xCE7 PUSH2 0xB38 JUMP JUMPDEST PUSH2 0x12D9 JUMP JUMPDEST POP JUMP JUMPDEST PUSH1 0x0 PUSH2 0xCFB DUP4 DUP4 PUSH2 0x860 JUMP JUMPDEST PUSH2 0xDD6 JUMPI PUSH1 0x1 PUSH1 0x5 PUSH1 0x0 DUP6 DUP2 MSTORE PUSH1 0x20 ADD SWAP1 DUP2 MSTORE PUSH1 0x20 ADD PUSH1 0x0 KECCAK256 PUSH1 0x0 ADD PUSH1 0x0 DUP5 PUSH20 0xFFFFFFFFFFFFFFFFFFFFFFFFFFFFFFFFFFFFFFFF AND PUSH20 0xFFFFFFFFFFFFFFFFFFFFFFFFFFFFFFFFFFFFFFFF AND DUP2 MSTORE PUSH1 0x20 ADD SWAP1 DUP2 MSTORE PUSH1 0x20 ADD PUSH1 0x0 KECCAK256 PUSH1 0x0 PUSH2 0x100 EXP DUP2 SLOAD DUP2 PUSH1 0xFF MUL NOT AND SWAP1 DUP4 ISZERO ISZERO MUL OR SWAP1 SSTORE POP PUSH2 0xD73 PUSH2 0xB38 JUMP JUMPDEST PUSH20 0xFFFFFFFFFFFFFFFFFFFFFFFFFFFFFFFFFFFFFFFF AND DUP3 PUSH20 0xFFFFFFFFFFFFFFFFFFFFFFFFFFFFFFFFFFFFFFFF AND DUP5 PUSH32 0x2F8788117E7EFF1D82E926EC794901D17C78024A50270940304540A733656F0D PUSH1 0x40 MLOAD PUSH1 0x40 MLOAD DUP1 SWAP2 SUB SWAP1 LOG4 PUSH1 0x1 SWAP1 POP PUSH2 0xDDB JUMP JUMPDEST PUSH1 0x0 SWAP1 POP JUMPDEST SWAP3 SWAP2 POP POP JUMP JUMPDEST PUSH1 0x0 PUSH2 0xDED DUP4 DUP4 PUSH2 0x860 JUMP JUMPDEST ISZERO PUSH2 0xEC9 JUMPI PUSH1 0x0 PUSH1 0x5 PUSH1 0x0 DUP6 DUP2 MSTORE PUSH1 0x20 ADD SWAP1 DUP2 MSTORE PUSH1 0x20 ADD PUSH1 0x0 KECCAK256 PUSH1 0x0 ADD PUSH1 0x0 DUP5 PUSH20 0xFFFFFFFFFFFFFFFFFFFFFFFFFFFFFFFFFFFFFFFF AND PUSH20 0xFFFFFFFFFFFFFFFFFFFFFFFFFFFFFFFFFFFFFFFF AND DUP2 MSTORE PUSH1 0x20 ADD SWAP1 DUP2 MSTORE PUSH1 0x20 ADD PUSH1 0x0 KECCAK256 PUSH1 0x0 PUSH2 0x100 EXP DUP2 SLOAD DUP2 PUSH1 0xFF MUL NOT AND SWAP1 DUP4 ISZERO ISZERO MUL OR SWAP1 SSTORE POP PUSH2 0xE66 PUSH2 0xB38 JUMP JUMPDEST PUSH20 0xFFFFFFFFFFFFFFFFFFFFFFFFFFFFFFFFFFFFFFFF AND DUP3 PUSH20 0xFFFFFFFFFFFFFFFFFFFFFFFFFFFFFFFFFFFFFFFF AND DUP5 PUSH32 0xF6391F5C32D9C69D2A47EA670B442974B53935D1EDC7FD64EB21E047A839171B PUSH1 0x40 MLOAD PUSH1 0x40 MLOAD DUP1 SWAP2 SUB SWAP1 LOG4 PUSH1 0x1 SWAP1 POP PUSH2 0xECE JUMP JUMPDEST PUSH1 0x0 SWAP1 POP JUMPDEST SWAP3 SWAP2 POP POP JUMP JUMPDEST PUSH1 0x0 PUSH20 0xFFFFFFFFFFFFFFFFFFFFFFFFFFFFFFFFFFFFFFFF AND DUP3 PUSH20 0xFFFFFFFFFFFFFFFFFFFFFFFFFFFFFFFFFFFFFFFF AND SUB PUSH2 0xF46 JUMPI PUSH1 0x0 PUSH1 0x40 MLOAD PUSH32 0xEC442F0500000000000000000000000000000000000000000000000000000000 DUP2 MSTORE PUSH1 0x4 ADD PUSH2 0xF3D SWAP2 SWAP1 PUSH2 0x1A56 JUMP JUMPDEST PUSH1 0x40 MLOAD DUP1 SWAP2 SUB SWAP1 REVERT JUMPDEST PUSH2 0xF52 PUSH1 0x0 DUP4 DUP4 PUSH2 0x11AF JUMP JUMPDEST POP POP JUMP JUMPDEST PUSH1 0x0 PUSH20 0xFFFFFFFFFFFFFFFFFFFFFFFFFFFFFFFFFFFFFFFF AND DUP3 PUSH20 0xFFFFFFFFFFFFFFFFFFFFFFFFFFFFFFFFFFFFFFFF AND SUB PUSH2 0xFC8 JUMPI PUSH1 0x0 PUSH1 0x40 MLOAD PUSH32 0x96C6FD1E00000000000000000000000000000000000000000000000000000000 DUP2 MSTORE PUSH1 0x4 ADD PUSH2 0xFBF SWAP2 SWAP1 PUSH2 0x1A56 JUMP JUMPDEST PUSH1 0x40 MLOAD DUP1 SWAP2 SUB SWAP1 REVERT JUMPDEST PUSH2 0xFD4 DUP3 PUSH1 0x0 DUP4 PUSH2 0x11AF JUMP JUMPDEST POP POP JUMP JUMPDEST PUSH1 0x0 PUSH20 0xFFFFFFFFFFFFFFFFFFFFFFFFFFFFFFFFFFFFFFFF AND DUP5 PUSH20 0xFFFFFFFFFFFFFFFFFFFFFFFFFFFFFFFFFFFFFFFF AND SUB PUSH2 0x104A JUMPI PUSH1 0x0 PUSH1 0x40 MLOAD PUSH32 0xE602DF0500000000000000000000000000000000000000000000000000000000 DUP2 MSTORE PUSH1 0x4 ADD PUSH2 0x1041 SWAP2 SWAP1 PUSH2 0x1A56 JUMP JUMPDEST PUSH1 0x40 MLOAD DUP1 SWAP2 SUB SWAP1 REVERT JUMPDEST PUSH1 0x0 PUSH20 0xFFFFFFFFFFFFFFFFFFFFFFFFFFFFFFFFFFFFFFFF AND DUP4 PUSH20 0xFFFFFFFFFFFFFFFFFFFFFFFFFFFFFFFFFFFFFFFF AND SUB PUSH2 0x10BC JUMPI PUSH1 0x0 PUSH1 0x40 MLOAD PUSH32 0x94280D6200000000000000000000000000000000000000000000000000000000 DUP2 MSTORE PUSH1 0x4 ADD PUSH2 0x10B3 SWAP2 SWAP1 PUSH2 0x1A56 JUMP JUMPDEST PUSH1 0x40 MLOAD DUP1 SWAP2 SUB SWAP1 REVERT JUMPDEST DUP2 PUSH1 0x1 PUSH1 0x0 DUP7 PUSH20 0xFFFFFFFFFFFFFFFFFFFFFFFFFFFFFFFFFFFFFFFF AND PUSH20 0xFFFFFFFFFFFFFFFFFFFFFFFFFFFFFFFFFFFFFFFF AND DUP2 MSTORE PUSH1 0x20 ADD SWAP1 DUP2 MSTORE PUSH1 0x20 ADD PUSH1 0x0 KECCAK256 PUSH1 0x0 DUP6 PUSH20 0xFFFFFFFFFFFFFFFFFFFFFFFFFFFFFFFFFFFFFFFF AND PUSH20 0xFFFFFFFFFFFFFFFFFFFFFFFFFFFFFFFFFFFFFFFF AND DUP2 MSTORE PUSH1 0x20 ADD SWAP1 DUP2 MSTORE PUSH1 0x20 ADD PUSH1 0x0 KECCAK256 DUP2 SWAP1 SSTORE POP DUP1 ISZERO PUSH2 0x11A9 JUMPI DUP3 PUSH20 0xFFFFFFFFFFFFFFFFFFFFFFFFFFFFFFFFFFFFFFFF AND DUP5 PUSH20 0xFFFFFFFFFFFFFFFFFFFFFFFFFFFFFFFFFFFFFFFF AND PUSH32 0x8C5BE1E5EBEC7D5BD14F71427D1E84F3DD0314C0F7B2291E5B200AC8C7C3B925 DUP5 PUSH1 0x40 MLOAD PUSH2 0x11A0 SWAP2 SWAP1 PUSH2 0x17A4 JUMP JUMPDEST PUSH1 0x40 MLOAD DUP1 SWAP2 SUB SWAP1 LOG3 JUMPDEST POP POP POP POP JUMP JUMPDEST PUSH1 0x6 PUSH1 0x0 DUP5 PUSH20 0xFFFFFFFFFFFFFFFFFFFFFFFFFFFFFFFFFFFFFFFF AND PUSH20 0xFFFFFFFFFFFFFFFFFFFFFFFFFFFFFFFFFFFFFFFF AND DUP2 MSTORE PUSH1 0x20 ADD SWAP1 DUP2 MSTORE PUSH1 0x20 ADD PUSH1 0x0 KECCAK256 PUSH1 0x0 SWAP1 SLOAD SWAP1 PUSH2 0x100 EXP SWAP1 DIV PUSH1 0xFF AND ISZERO PUSH2 0x123C JUMPI PUSH1 0x40 MLOAD PUSH32 0x8C379A000000000000000000000000000000000000000000000000000000000 DUP2 MSTORE PUSH1 0x4 ADD PUSH2 0x1233 SWAP1 PUSH2 0x1ABD JUMP JUMPDEST PUSH1 0x40 MLOAD DUP1 SWAP2 SUB SWAP1 REVERT JUMPDEST PUSH1 0x6 PUSH1 0x0 DUP4 PUSH20 0xFFFFFFFFFFFFFFFFFFFFFFFFFFFFFFFFFFFFFFFF AND PUSH20 0xFFFFFFFFFFFFFFFFFFFFFFFFFFFFFFFFFFFFFFFF AND DUP2 MSTORE PUSH1 0x20 ADD SWAP1 DUP2 MSTORE PUSH1 0x20 ADD PUSH1 0x0 KECCAK256 PUSH1 0x0 SWAP1 SLOAD SWAP1 PUSH2 0x100 EXP SWAP1 DIV PUSH1 0xFF AND ISZERO PUSH2 0x12C9 JUMPI PUSH1 0x40 MLOAD PUSH32 0x8C379A000000000000000000000000000000000000000000000000000000000 DUP2 MSTORE PUSH1 0x4 ADD PUSH2 0x12C0 SWAP1 PUSH2 0x1B29 JUMP JUMPDEST PUSH1 0x40 MLOAD DUP1 SWAP2 SUB SWAP1 REVERT JUMPDEST PUSH2 0x12D4 DUP4 DUP4 DUP4 PUSH2 0x132A JUMP JUMPDEST POP POP POP JUMP JUMPDEST PUSH2 0x12E3 DUP3 DUP3 PUSH2 0x860 JUMP JUMPDEST PUSH2 0x1326 JUMPI DUP1 DUP3 PUSH1 0x40 MLOAD PUSH32 0xE2517D3F00000000000000000000000000000000000000000000000000000000 DUP2 MSTORE PUSH1 0x4 ADD PUSH2 0x131D SWAP3 SWAP2 SWAP1 PUSH2 0x1B49 JUMP JUMPDEST PUSH1 0x40 MLOAD DUP1 SWAP2 SUB SWAP1 REVERT JUMPDEST POP POP JUMP JUMPDEST PUSH1 0x0 PUSH20 0xFFFFFFFFFFFFFFFFFFFFFFFFFFFFFFFFFFFFFFFF AND DUP4 PUSH20 0xFFFFFFFFFFFFFFFFFFFFFFFFFFFFFFFFFFFFFFFF AND SUB PUSH2 0x137C JUMPI DUP1 PUSH1 0x2 PUSH1 0x0 DUP3 DUP3 SLOAD PUSH2 0x1370 SWAP2 SWAP1 PUSH2 0x1BA1 JUMP JUMPDEST SWAP3 POP POP DUP2 SWAP1 SSTORE POP PUSH2 0x144F JUMP JUMPDEST PUSH1 0x0 DUP1 PUSH1 0x0 DUP6 PUSH20 0xFFFFFFFFFFFFFFFFFFFFFFFFFFFFFFFFFFFFFFFF AND PUSH20 0xFFFFFFFFFFFFFFFFFFFFFFFFFFFFFFFFFFFFFFFF AND DUP2 MSTORE PUSH1 0x20 ADD SWAP1 DUP2 MSTORE PUSH1 0x20 ADD PUSH1 0x0 KECCAK256 SLOAD SWAP1 POP DUP2 DUP2 LT ISZERO PUSH2 0x1408 JUMPI DUP4 DUP2 DUP4 PUSH1 0x40 MLOAD PUSH32 0xE450D38C00000000000000000000000000000000000000000000000000000000 DUP2 MSTORE PUSH1 0x4 ADD PUSH2 0x13FF SWAP4 SWAP3 SWAP2 SWAP1 PUSH2 0x1A1F JUMP JUMPDEST PUSH1 0x40 MLOAD DUP1 SWAP2 SUB SWAP1 REVERT JUMPDEST DUP2 DUP2 SUB PUSH1 0x0 DUP1 DUP7 PUSH20 0xFFFFFFFFFFFFFFFFFFFFFFFFFFFFFFFFFFFFFFFF AND PUSH20 0xFFFFFFFFFFFFFFFFFFFFFFFFFFFFFFFFFFFFFFFF AND DUP2 MSTORE PUSH1 0x20 ADD SWAP1 DUP2 MSTORE PUSH1 0x20 ADD PUSH1 0x0 KECCAK256 DUP2 SWAP1 SSTORE POP POP JUMPDEST PUSH1 0x0 PUSH20 0xFFFFFFFFFFFFFFFFFFFFFFFFFFFFFFFFFFFFFFFF AND DUP3 PUSH20 0xFFFFFFFFFFFFFFFFFFFFFFFFFFFFFFFFFFFFFFFF AND SUB PUSH2 0x1498 JUMPI DUP1 PUSH1 0x2 PUSH1 0x0 DUP3 DUP3 SLOAD SUB SWAP3 POP POP DUP2 SWAP1 SSTORE POP PUSH2 0x14E5 JUMP JUMPDEST DUP1 PUSH1 0x0 DUP1 DUP5 PUSH20 0xFFFFFFFFFFFFFFFFFFFFFFFFFFFFFFFFFFFFFFFF AND PUSH20 0xFFFFFFFFFFFFFFFFFFFFFFFFFFFFFFFFFFFFFFFF AND DUP2 MSTORE PUSH1 0x20 ADD SWAP1 DUP2 MSTORE PUSH1 0x20 ADD PUSH1 0x0 KECCAK256 PUSH1 0x0 DUP3 DUP3 SLOAD ADD SWAP3 POP POP DUP2 SWAP1 SSTORE POP JUMPDEST DUP2 PUSH20 0xFFFFFFFFFFFFFFFFFFFFFFFFFFFFFFFFFFFFFFFF AND DUP4 PUSH20 0xFFFFFFFFFFFFFFFFFFFFFFFFFFFFFFFFFFFFFFFF AND PUSH32 0xDDF252AD1BE2C89B69C2B068FC378DAA952BA7F163C4A11628F55A4DF523B3EF DUP4 PUSH1 0x40 MLOAD PUSH2 0x1542 SWAP2 SWAP1 PUSH2 0x17A4 JUMP JUMPDEST PUSH1 0x40 MLOAD DUP1 SWAP2 SUB SWAP1 LOG3 POP POP POP JUMP JUMPDEST PUSH1 0x0 DUP1 REVERT JUMPDEST PUSH1 0x0 PUSH32 0xFFFFFFFF00000000000000000000000000000000000000000000000000000000 DUP3 AND SWAP1 POP SWAP2 SWAP1 POP JUMP JUMPDEST PUSH2 0x1589 DUP2 PUSH2 0x1554 JUMP JUMPDEST DUP2 EQ PUSH2 0x1594 JUMPI PUSH1 0x0 DUP1 REVERT JUMPDEST POP JUMP JUMPDEST PUSH1 0x0 DUP2 CALLDATALOAD SWAP1 POP PUSH2 0x15A6 DUP2 PUSH2 0x1580 JUMP JUMPDEST SWAP3 SWAP2 POP POP JUMP JUMPDEST PUSH1 0x0 PUSH1 0x20 DUP3 DUP5 SUB SLT ISZERO PUSH2 0x15C2 JUMPI PUSH2 0x15C1 PUSH2 0x154F JUMP JUMPDEST JUMPDEST PUSH1 0x0 PUSH2 0x15D0 DUP5 DUP3 DUP6 ADD PUSH2 0x1597 JUMP JUMPDEST SWAP2 POP POP SWAP3 SWAP2 POP POP JUMP JUMPDEST PUSH1 0x0 DUP2 ISZERO ISZERO SWAP1 POP SWAP2 SWAP1 POP JUMP JUMPDEST PUSH2 0x15EE DUP2 PUSH2 0x15D9 JUMP JUMPDEST DUP3 MSTORE POP POP JUMP JUMPDEST PUSH1 0x0 PUSH1 0x20 DUP3 ADD SWAP1 POP PUSH2 0x1609 PUSH1 0x0 DUP4 ADD DUP5 PUSH2 0x15E5 JUMP JUMPDEST SWAP3 SWAP2 POP POP JUMP JUMPDEST PUSH1 0x0 DUP2 MLOAD SWAP1 POP SWAP2 SWAP1 POP JUMP JUMPDEST PUSH1 0x0 DUP3 DUP3 MSTORE PUSH1 0x20 DUP3 ADD SWAP1 POP SWAP3 SWAP2 POP POP JUMP JUMPDEST PUSH1 0x0 JUMPDEST DUP4 DUP2 LT ISZERO PUSH2 0x1649 JUMPI DUP1 DUP3 ADD MLOAD DUP2 DUP5 ADD MSTORE PUSH1 0x20 DUP2 ADD SWAP1 POP PUSH2 0x162E JUMP JUMPDEST PUSH1 0x0 DUP5 DUP5 ADD MSTORE POP POP POP POP JUMP JUMPDEST PUSH1 0x0 PUSH1 0x1F NOT PUSH1 0x1F DUP4 ADD AND SWAP1 POP SWAP2 SWAP1 POP JUMP JUMPDEST PUSH1 0x0 PUSH2 0x1671 DUP3 PUSH2 0x160F JUMP JUMPDEST PUSH2 0x167B DUP2 DUP6 PUSH2 0x161A JUMP JUMPDEST SWAP4 POP PUSH2 0x168B DUP2 DUP6 PUSH1 0x20 DUP7 ADD PUSH2 0x162B JUMP JUMPDEST PUSH2 0x1694 DUP2 PUSH2 0x1655 JUMP JUMPDEST DUP5 ADD SWAP2 POP POP SWAP3 SWAP2 POP POP JUMP JUMPDEST PUSH1 0x0 PUSH1 0x20 DUP3 ADD SWAP1 POP DUP2 DUP2 SUB PUSH1 0x0 DUP4 ADD MSTORE PUSH2 0x16B9 DUP2 DUP5 PUSH2 0x1666 JUMP JUMPDEST SWAP1 POP SWAP3 SWAP2 POP POP JUMP JUMPDEST PUSH1 0x0 PUSH20 0xFFFFFFFFFFFFFFFFFFFFFFFFFFFFFFFFFFFFFFFF DUP3 AND SWAP1 POP SWAP2 SWAP1 POP JUMP JUMPDEST PUSH1 0x0 PUSH2 0x16EC DUP3 PUSH2 0x16C1 JUMP JUMPDEST SWAP1 POP SWAP2 SWAP1 POP JUMP JUMPDEST PUSH2 0x16FC DUP2 PUSH2 0x16E1 JUMP JUMPDEST DUP2 EQ PUSH2 0x1707 JUMPI PUSH1 0x0 DUP1 REVERT JUMPDEST POP JUMP JUMPDEST PUSH1 0x0 DUP2 CALLDATALOAD SWAP1 POP PUSH2 0x1719 DUP2 PUSH2 0x16F3 JUMP JUMPDEST SWAP3 SWAP2 POP POP JUMP JUMPDEST PUSH1 0x0 DUP2 SWAP1 POP SWAP2 SWAP1 POP JUMP JUMPDEST PUSH2 0x1732 DUP2 PUSH2 0x171F JUMP JUMPDEST DUP2 EQ PUSH2 0x173D JUMPI PUSH1 0x0 DUP1 REVERT JUMPDEST POP JUMP JUMPDEST PUSH1 0x0 DUP2 CALLDATALOAD SWAP1 POP PUSH2 0x174F DUP2 PUSH2 0x1729 JUMP JUMPDEST SWAP3 SWAP2 POP POP JUMP JUMPDEST PUSH1 0x0 DUP1 PUSH1 0x40 DUP4 DUP6 SUB SLT ISZERO PUSH2 0x176C JUMPI PUSH2 0x176B PUSH2 0x154F JUMP JUMPDEST JUMPDEST PUSH1 0x0 PUSH2 0x177A DUP6 DUP3 DUP7 ADD PUSH2 0x170A JUMP JUMPDEST SWAP3 POP POP PUSH1 0x20 PUSH2 0x178B DUP6 DUP3 DUP7 ADD PUSH2 0x1740 JUMP JUMPDEST SWAP2 POP POP SWAP3 POP SWAP3 SWAP1 POP JUMP JUMPDEST PUSH2 0x179E DUP2 PUSH2 0x171F JUMP JUMPDEST DUP3 MSTORE POP POP JUMP JUMPDEST PUSH1 0x0 PUSH1 0x20 DUP3 ADD SWAP1 POP PUSH2 0x17B9 PUSH1 0x0 DUP4 ADD DUP5 PUSH2 0x1795 JUMP JUMPDEST SWAP3 SWAP2 POP POP JUMP JUMPDEST PUSH1 0x0 DUP1 PUSH1 0x0 PUSH1 0x60 DUP5 DUP7 SUB SLT ISZERO PUSH2 0x17D8 JUMPI PUSH2 0x17D7 PUSH2 0x154F JUMP JUMPDEST JUMPDEST PUSH1 0x0 PUSH2 0x17E6 DUP7 DUP3 DUP8 ADD PUSH2 0x170A JUMP JUMPDEST SWAP4 POP POP PUSH1 0x20 PUSH2 0x17F7 DUP7 DUP3 DUP8 ADD PUSH2 0x170A JUMP JUMPDEST SWAP3 POP POP PUSH1 0x40 PUSH2 0x1808 DUP7 DUP3 DUP8 ADD PUSH2 0x1740 JUMP JUMPDEST SWAP2 POP POP SWAP3 POP SWAP3 POP SWAP3 JUMP JUMPDEST PUSH1 0x0 DUP2 SWAP1 POP SWAP2 SWAP1 POP JUMP JUMPDEST PUSH2 0x1825 DUP2 PUSH2 0x1812 JUMP JUMPDEST DUP2 EQ PUSH2 0x1830 JUMPI PUSH1 0x0 DUP1 REVERT JUMPDEST POP JUMP JUMPDEST PUSH1 0x0 DUP2 CALLDATALOAD SWAP1 POP PUSH2 0x1842 DUP2 PUSH2 0x181C JUMP JUMPDEST SWAP3 SWAP2 POP POP JUMP JUMPDEST PUSH1 0x0 PUSH1 0x20 DUP3 DUP5 SUB SLT ISZERO PUSH2 0x185E JUMPI PUSH2 0x185D PUSH2 0x154F JUMP JUMPDEST JUMPDEST PUSH1 0x0 PUSH2 0x186C DUP5 DUP3 DUP6 ADD PUSH2 0x1833 JUMP JUMPDEST SWAP2 POP POP SWAP3 SWAP2 POP POP JUMP JUMPDEST PUSH2 0x187E DUP2 PUSH2 0x1812 JUMP JUMPDEST DUP3 MSTORE POP POP JUMP JUMPDEST PUSH1 0x0 PUSH1 0x20 DUP3 ADD SWAP1 POP PUSH2 0x1899 PUSH1 0x0 DUP4 ADD DUP5 PUSH2 0x1875 JUMP JUMPDEST SWAP3 SWAP2 POP POP JUMP JUMPDEST PUSH1 0x0 DUP1 PUSH1 0x40 DUP4 DUP6 SUB SLT ISZERO PUSH2 0x18B6 JUMPI PUSH2 0x18B5 PUSH2 0x154F JUMP JUMPDEST JUMPDEST PUSH1 0x0 PUSH2 0x18C4 DUP6 DUP3 DUP7 ADD PUSH2 0x1833 JUMP JUMPDEST SWAP3 POP POP PUSH1 0x20 PUSH2 0x18D5 DUP6 DUP3 DUP7 ADD PUSH2 0x170A JUMP JUMPDEST SWAP2 POP POP SWAP3 POP SWAP3 SWAP1 POP JUMP JUMPDEST PUSH1 0x0 PUSH1 0xFF DUP3 AND SWAP1 POP SWAP2 SWAP1 POP JUMP JUMPDEST PUSH2 0x18F5 DUP2 PUSH2 0x18DF JUMP JUMPDEST DUP3 MSTORE POP POP JUMP JUMPDEST PUSH1 0x0 PUSH1 0x20 DUP3 ADD SWAP1 POP PUSH2 0x1910 PUSH1 0x0 DUP4 ADD DUP5 PUSH2 0x18EC JUMP JUMPDEST SWAP3 SWAP2 POP POP JUMP JUMPDEST PUSH1 0x0 PUSH1 0x20 DUP3 DUP5 SUB SLT ISZERO PUSH2 0x192C JUMPI PUSH2 0x192B PUSH2 0x154F JUMP JUMPDEST JUMPDEST PUSH1 0x0 PUSH2 0x193A DUP5 DUP3 DUP6 ADD PUSH2 0x1740 JUMP JUMPDEST SWAP2 POP POP SWAP3 SWAP2 POP POP JUMP JUMPDEST PUSH1 0x0 PUSH1 0x20 DUP3 DUP5 SUB SLT ISZERO PUSH2 0x1959 JUMPI PUSH2 0x1958 PUSH2 0x154F JUMP JUMPDEST JUMPDEST PUSH1 0x0 PUSH2 0x1967 DUP5 DUP3 DUP6 ADD PUSH2 0x170A JUMP JUMPDEST SWAP2 POP POP SWAP3 SWAP2 POP POP JUMP JUMPDEST PUSH1 0x0 DUP1 PUSH1 0x40 DUP4 DUP6 SUB SLT ISZERO PUSH2 0x1987 JUMPI PUSH2 0x1986 PUSH2 0x154F JUMP JUMPDEST JUMPDEST PUSH1 0x0 PUSH2 0x1995 DUP6 DUP3 DUP7 ADD PUSH2 0x170A JUMP JUMPDEST SWAP3 POP POP PUSH1 0x20 PUSH2 0x19A6 DUP6 DUP3 DUP7 ADD PUSH2 0x170A JUMP JUMPDEST SWAP2 POP POP SWAP3 POP SWAP3 SWAP1 POP JUMP JUMPDEST PUSH32 0x4E487B7100000000000000000000000000000000000000000000000000000000 PUSH1 0x0 MSTORE PUSH1 0x22 PUSH1 0x4 MSTORE PUSH1 0x24 PUSH1 0x0 REVERT JUMPDEST PUSH1 0x0 PUSH1 0x2 DUP3 DIV SWAP1 POP PUSH1 0x1 DUP3 AND DUP1 PUSH2 0x19F7 JUMPI PUSH1 0x7F DUP3 AND SWAP2 POP JUMPDEST PUSH1 0x20 DUP3 LT DUP2 SUB PUSH2 0x1A0A JUMPI PUSH2 0x1A09 PUSH2 0x19B0 JUMP JUMPDEST JUMPDEST POP SWAP2 SWAP1 POP JUMP JUMPDEST PUSH2 0x1A19 DUP2 PUSH2 0x16E1 JUMP JUMPDEST DUP3 MSTORE POP POP JUMP JUMPDEST PUSH1 0x0 PUSH1 0x60 DUP3 ADD SWAP1 POP PUSH2 0x1A34 PUSH1 0x0 DUP4 ADD DUP7 PUSH2 0x1A10 JUMP JUMPDEST PUSH2 0x1A41 PUSH1 0x20 DUP4 ADD DUP6 PUSH2 0x1795 JUMP JUMPDEST PUSH2 0x1A4E PUSH1 0x40 DUP4 ADD DUP5 PUSH2 0x1795 JUMP JUMPDEST SWAP5 SWAP4 POP POP POP POP JUMP JUMPDEST PUSH1 0x0 PUSH1 0x20 DUP3 ADD SWAP1 POP PUSH2 0x1A6B PUSH1 0x0 DUP4 ADD DUP5 PUSH2 0x1A10 JUMP JUMPDEST SWAP3 SWAP2 POP POP JUMP JUMPDEST PUSH32 0x5441534B3A2073656E64657220697320626C61636B6C69737465640000000000 PUSH1 0x0 DUP3 ADD MSTORE POP JUMP JUMPDEST PUSH1 0x0 PUSH2 0x1AA7 PUSH1 0x1B DUP4 PUSH2 0x161A JUMP JUMPDEST SWAP2 POP PUSH2 0x1AB2 DUP3 PUSH2 0x1A71 JUMP JUMPDEST PUSH1 0x20 DUP3 ADD SWAP1 POP SWAP2 SWAP1 POP JUMP JUMPDEST PUSH1 0x0 PUSH1 0x20 DUP3 ADD SWAP1 POP DUP2 DUP2 SUB PUSH1 0x0 DUP4 ADD MSTORE PUSH2 0x1AD6 DUP2 PUSH2 0x1A9A JUMP JUMPDEST SWAP1 POP SWAP2 SWAP1 POP JUMP JUMPDEST PUSH32 0x5441534B3A20726563697069656E7420697320626C61636B6C69737465640000 PUSH1 0x0 DUP3 ADD MSTORE POP JUMP JUMPDEST PUSH1 0x0 PUSH2 0x1B13 PUSH1 0x1E DUP4 PUSH2 0x161A JUMP JUMPDEST SWAP2 POP PUSH2 0x1B1E DUP3 PUSH2 0x1ADD JUMP JUMPDEST PUSH1 0x20 DUP3 ADD SWAP1 POP SWAP2 SWAP1 POP JUMP JUMPDEST PUSH1 0x0 PUSH1 0x20 DUP3 ADD SWAP1 POP DUP2 DUP2 SUB PUSH1 0x0 DUP4 ADD MSTORE PUSH2 0x1B42 DUP2 PUSH2 0x1B06 JUMP JUMPDEST SWAP1 POP SWAP2 SWAP1 POP JUMP JUMPDEST PUSH1 0x0 PUSH1 0x40 DUP3 ADD SWAP1 POP PUSH2 0x1B5E PUSH1 0x0 DUP4 ADD DUP6 PUSH2 0x1A10 JUMP JUMPDEST PUSH2 0x1B6B PUSH1 0x20 DUP4 ADD DUP5 PUSH2 0x1875 JUMP JUMPDEST SWAP4 SWAP3 POP POP POP JUMP JUMPDEST PUSH32 0x4E487B7100000000000000000000000000000000000000000000000000000000 PUSH1 0x0 MSTORE PUSH1 0x11 PUSH1 0x4 MSTORE PUSH1 0x24 PUSH1 0x0 REVERT JUMPDEST PUSH1 0x0 PUSH2 0x1BAC DUP3 PUSH2 0x171F JUMP JUMPDEST SWAP2 POP PUSH2 0x1BB7 DUP4 PUSH2 0x171F JUMP JUMPDEST SWAP3 POP DUP3 DUP3 ADD SWAP1 POP DUP1 DUP3 GT ISZERO PUSH2 0x1BCF JUMPI PUSH2 0x1BCE PUSH2 0x1B72 JUMP JUMPDEST JUMPDEST SWAP3 SWAP2 POP POP JUMP INVALID LOG2 PUSH5 0x6970667358 0x22 SLT KECCAK256 0xC7 0xEE 0x24 SWAP11 0xD0 0x23 0x2D PREVRANDAO BLOCKHASH 0xC2 0xC0 0xDD BYTE SWAP3 PUSH15 0xFDAB76133E5FE4C4838682871C22D0 0x2F 0x25 PUSH5 0x736F6C6343 STOP ADDMOD EQ STOP CALLER "
        },
        "methodIdentifiers": {
          "BLACKLISTER_ROLE()": "f515e6f2",
          "DEFAULT_ADMIN_ROLE()": "a217fddf",
          "MINTER_ROLE()": "d5391393",
          "addToBlacklist(address)": "44337ea1",
          "allowance(address,address)": "dd62ed3e",
          "approve(address,uint256)": "095ea7b3",
          "balanceOf(address)": "70a08231",
          "burn(uint256)": "42966c68",
          "decimals()": "313ce567",
          "getRoleAdmin(bytes32)": "248a9ca3",
          "grantRole(bytes32,address)": "2f2ff15d",
          "hasRole(bytes32,address)": "91d14854",
          "isBlacklisted(address)": "fe575a87",
          "mint(address,uint256)": "40c10f19",
          "name()": "06fdde03",
          "removeFromBlacklist(address)": "537df3b6",
          "renounceRole(bytes32,address)": "36568abe",
          "revokeRole(bytes32,address)": "d547741f",
          "supportsInterface(bytes4)": "01ffc9a7",
          "symbol()": "95d89b41",
          "totalSupply()": "18160ddd",
          "transfer(address,uint256)": "a9059cbb",
          "transferFrom(address,address,uint256)": "23b872dd"
        }
      }
    }
  }
}